{
  "contractName": "OnChainNFT",
  "abi": [
    {
      "inputs": [],
      "stateMutability": "payable",
      "type": "constructor",
      "payable": true
    },
    {
      "anonymous": false,
      "inputs": [
        {
          "indexed": true,
          "internalType": "address",
          "name": "owner",
          "type": "address"
        },
        {
          "indexed": true,
          "internalType": "address",
          "name": "approved",
          "type": "address"
        },
        {
          "indexed": true,
          "internalType": "uint256",
          "name": "tokenId",
          "type": "uint256"
        }
      ],
      "name": "Approval",
      "type": "event"
    },
    {
      "anonymous": false,
      "inputs": [
        {
          "indexed": true,
          "internalType": "address",
          "name": "owner",
          "type": "address"
        },
        {
          "indexed": true,
          "internalType": "address",
          "name": "operator",
          "type": "address"
        },
        {
          "indexed": false,
          "internalType": "bool",
          "name": "approved",
          "type": "bool"
        }
      ],
      "name": "ApprovalForAll",
      "type": "event"
    },
    {
      "anonymous": false,
      "inputs": [
        {
          "indexed": true,
          "internalType": "address",
          "name": "previousOwner",
          "type": "address"
        },
        {
          "indexed": true,
          "internalType": "address",
          "name": "newOwner",
          "type": "address"
        }
      ],
      "name": "OwnershipTransferred",
      "type": "event"
    },
    {
      "anonymous": false,
      "inputs": [
        {
          "indexed": true,
          "internalType": "address",
          "name": "from",
          "type": "address"
        },
        {
          "indexed": true,
          "internalType": "address",
          "name": "to",
          "type": "address"
        },
        {
          "indexed": true,
          "internalType": "uint256",
          "name": "tokenId",
          "type": "uint256"
        }
      ],
      "name": "Transfer",
      "type": "event"
    },
    {
      "inputs": [
        {
          "internalType": "address",
          "name": "to",
          "type": "address"
        },
        {
          "internalType": "uint256",
          "name": "tokenId",
          "type": "uint256"
        }
      ],
      "name": "approve",
      "outputs": [],
      "stateMutability": "nonpayable",
      "type": "function"
    },
    {
      "inputs": [
        {
          "internalType": "address",
          "name": "owner",
          "type": "address"
        }
      ],
      "name": "balanceOf",
      "outputs": [
        {
          "internalType": "uint256",
          "name": "",
          "type": "uint256"
        }
      ],
      "stateMutability": "view",
      "type": "function",
      "constant": true
    },
    {
      "inputs": [
        {
          "internalType": "uint256",
          "name": "tokenId",
          "type": "uint256"
        }
      ],
      "name": "getApproved",
      "outputs": [
        {
          "internalType": "address",
          "name": "",
          "type": "address"
        }
      ],
      "stateMutability": "view",
      "type": "function",
      "constant": true
    },
    {
      "inputs": [
        {
          "internalType": "address",
          "name": "owner",
          "type": "address"
        },
        {
          "internalType": "address",
          "name": "operator",
          "type": "address"
        }
      ],
      "name": "isApprovedForAll",
      "outputs": [
        {
          "internalType": "bool",
          "name": "",
          "type": "bool"
        }
      ],
      "stateMutability": "view",
      "type": "function",
      "constant": true
    },
    {
      "inputs": [],
      "name": "isMintEnabled",
      "outputs": [
        {
          "internalType": "bool",
          "name": "",
          "type": "bool"
        }
      ],
      "stateMutability": "view",
      "type": "function",
      "constant": true
    },
    {
      "inputs": [],
      "name": "maxSupply",
      "outputs": [
        {
          "internalType": "uint256",
          "name": "",
          "type": "uint256"
        }
      ],
      "stateMutability": "view",
      "type": "function",
      "constant": true
    },
    {
      "inputs": [],
      "name": "mintPrice",
      "outputs": [
        {
          "internalType": "uint256",
          "name": "",
          "type": "uint256"
        }
      ],
      "stateMutability": "view",
      "type": "function",
      "constant": true
    },
    {
      "inputs": [
        {
          "internalType": "address",
          "name": "",
          "type": "address"
        }
      ],
      "name": "mintedWallets",
      "outputs": [
        {
          "internalType": "uint256",
          "name": "",
          "type": "uint256"
        }
      ],
      "stateMutability": "view",
      "type": "function",
      "constant": true
    },
    {
      "inputs": [],
      "name": "name",
      "outputs": [
        {
          "internalType": "string",
          "name": "",
          "type": "string"
        }
      ],
      "stateMutability": "view",
      "type": "function",
      "constant": true
    },
    {
      "inputs": [],
      "name": "owner",
      "outputs": [
        {
          "internalType": "address",
          "name": "",
          "type": "address"
        }
      ],
      "stateMutability": "view",
      "type": "function",
      "constant": true
    },
    {
      "inputs": [
        {
          "internalType": "uint256",
          "name": "tokenId",
          "type": "uint256"
        }
      ],
      "name": "ownerOf",
      "outputs": [
        {
          "internalType": "address",
          "name": "",
          "type": "address"
        }
      ],
      "stateMutability": "view",
      "type": "function",
      "constant": true
    },
    {
      "inputs": [],
      "name": "renounceOwnership",
      "outputs": [],
      "stateMutability": "nonpayable",
      "type": "function"
    },
    {
      "inputs": [
        {
          "internalType": "address",
          "name": "from",
          "type": "address"
        },
        {
          "internalType": "address",
          "name": "to",
          "type": "address"
        },
        {
          "internalType": "uint256",
          "name": "tokenId",
          "type": "uint256"
        }
      ],
      "name": "safeTransferFrom",
      "outputs": [],
      "stateMutability": "nonpayable",
      "type": "function"
    },
    {
      "inputs": [
        {
          "internalType": "address",
          "name": "from",
          "type": "address"
        },
        {
          "internalType": "address",
          "name": "to",
          "type": "address"
        },
        {
          "internalType": "uint256",
          "name": "tokenId",
          "type": "uint256"
        },
        {
          "internalType": "bytes",
          "name": "data",
          "type": "bytes"
        }
      ],
      "name": "safeTransferFrom",
      "outputs": [],
      "stateMutability": "nonpayable",
      "type": "function"
    },
    {
      "inputs": [
        {
          "internalType": "address",
          "name": "operator",
          "type": "address"
        },
        {
          "internalType": "bool",
          "name": "approved",
          "type": "bool"
        }
      ],
      "name": "setApprovalForAll",
      "outputs": [],
      "stateMutability": "nonpayable",
      "type": "function"
    },
    {
      "inputs": [
        {
          "internalType": "bytes4",
          "name": "interfaceId",
          "type": "bytes4"
        }
      ],
      "name": "supportsInterface",
      "outputs": [
        {
          "internalType": "bool",
          "name": "",
          "type": "bool"
        }
      ],
      "stateMutability": "view",
      "type": "function",
      "constant": true
    },
    {
      "inputs": [],
      "name": "symbol",
      "outputs": [
        {
          "internalType": "string",
          "name": "",
          "type": "string"
        }
      ],
      "stateMutability": "view",
      "type": "function",
      "constant": true
    },
    {
      "inputs": [
        {
          "internalType": "uint256",
          "name": "tokenId",
          "type": "uint256"
        }
      ],
      "name": "tokenURI",
      "outputs": [
        {
          "internalType": "string",
          "name": "",
          "type": "string"
        }
      ],
      "stateMutability": "view",
      "type": "function",
      "constant": true
    },
    {
      "inputs": [],
      "name": "totalSupply",
      "outputs": [
        {
          "internalType": "uint256",
          "name": "",
          "type": "uint256"
        }
      ],
      "stateMutability": "view",
      "type": "function",
      "constant": true
    },
    {
      "inputs": [
        {
          "internalType": "address",
          "name": "from",
          "type": "address"
        },
        {
          "internalType": "address",
          "name": "to",
          "type": "address"
        },
        {
          "internalType": "uint256",
          "name": "tokenId",
          "type": "uint256"
        }
      ],
      "name": "transferFrom",
      "outputs": [],
      "stateMutability": "nonpayable",
      "type": "function"
    },
    {
      "inputs": [
        {
          "internalType": "address",
          "name": "newOwner",
          "type": "address"
        }
      ],
      "name": "transferOwnership",
      "outputs": [],
      "stateMutability": "nonpayable",
      "type": "function"
    },
    {
      "inputs": [],
      "name": "withdrawWallet",
      "outputs": [
        {
          "internalType": "address payable",
          "name": "",
          "type": "address"
        }
      ],
      "stateMutability": "view",
      "type": "function",
      "constant": true
    },
    {
      "inputs": [
        {
          "internalType": "bool",
          "name": "isMintEnabled_",
          "type": "bool"
        }
      ],
      "name": "toggleIsMintEnabled",
      "outputs": [],
      "stateMutability": "nonpayable",
      "type": "function"
    },
    {
      "inputs": [
        {
          "internalType": "uint256",
          "name": "maxSupply_",
          "type": "uint256"
        }
      ],
      "name": "setMaxSupply",
      "outputs": [],
      "stateMutability": "nonpayable",
      "type": "function"
    },
    {
      "inputs": [
        {
          "internalType": "string",
          "name": "imageURI",
          "type": "string"
        }
      ],
      "name": "formatTokenURIforOpenSea",
      "outputs": [
        {
          "internalType": "string",
          "name": "",
          "type": "string"
        }
      ],
      "stateMutability": "pure",
      "type": "function",
      "constant": true
    },
    {
      "inputs": [
        {
          "internalType": "string",
          "name": "name",
          "type": "string"
        },
        {
          "internalType": "string",
          "name": "description",
          "type": "string"
        },
        {
          "internalType": "string",
          "name": "imageURI",
          "type": "string"
        }
      ],
      "name": "formatTokenURI",
      "outputs": [
        {
          "internalType": "string",
          "name": "",
          "type": "string"
        }
      ],
      "stateMutability": "pure",
      "type": "function",
      "constant": true
    },
    {
      "inputs": [
        {
          "internalType": "bool",
          "name": "marketplaceCheck",
          "type": "bool"
        },
        {
          "internalType": "string",
          "name": "name",
          "type": "string"
        },
        {
          "internalType": "string",
          "name": "description",
          "type": "string"
        },
        {
          "internalType": "string",
          "name": "imageURI",
          "type": "string"
        }
      ],
      "name": "mint",
      "outputs": [],
      "stateMutability": "payable",
      "type": "function",
      "payable": true
    },
    {
      "inputs": [],
      "name": "withdraw",
      "outputs": [],
      "stateMutability": "payable",
      "type": "function",
      "payable": true
    }
  ],
  "bytecode": "0x60806040526001600b60006101000a81548160ff0219169083151502179055506040518060400160405280600f81526020017f4f6e436861696e506978656c61727400000000000000000000000000000000008152506040518060400160405280600381526020017f4f4e5000000000000000000000000000000000000000000000000000000000008152508160009080519060200190620000a3929190620001d2565b508060019080519060200190620000bc929190620001d2565b505050620000df620000d36200010460201b60201c565b6200010c60201b60201c565b66038d7ea4c6800060088190555060006009819055506103e7600a81905550620002e6565b600033905090565b6000600760009054906101000a900473ffffffffffffffffffffffffffffffffffffffff16905081600760006101000a81548173ffffffffffffffffffffffffffffffffffffffff021916908373ffffffffffffffffffffffffffffffffffffffff1602179055508173ffffffffffffffffffffffffffffffffffffffff168173ffffffffffffffffffffffffffffffffffffffff167f8be0079c531659141344cd1fd0a4f28419497f9722a3daafe3b4186f6b6457e060405160405180910390a35050565b828054620001e090620002b1565b90600052602060002090601f01602090048101928262000204576000855562000250565b82601f106200021f57805160ff191683800117855562000250565b8280016001018555821562000250579182015b828111156200024f57825182559160200191906001019062000232565b5b5090506200025f919062000263565b5090565b5b808211156200027e57600081600090555060010162000264565b5090565b7f4e487b7100000000000000000000000000000000000000000000000000000000600052602260045260246000fd5b60006002820490506001821680620002ca57607f821691505b602082108103620002e057620002df62000282565b5b50919050565b613eec80620002f66000396000f3fe6080604052600436106101b75760003560e01c80636f8b44b0116100ec578063ada7c4ed1161008a578063d5abeb0111610064578063d5abeb01146105f0578063e985e9c51461061b578063f2fde38b14610658578063fd39f11e14610681576101b7565b8063ada7c4ed1461054d578063b88d4fde1461058a578063c87b56dd146105b3576101b7565b806385d178f4116100c657806385d178f4146104a35780638da5cb5b146104ce57806395d89b41146104f9578063a22cb46514610524576101b7565b80636f8b44b01461042657806370a082311461044f578063715018a61461048c576101b7565b806323b872dd1161015957806342842e0e1161013357806342842e0e1461036c578063529eb6a8146103955780636352211e146103be5780636817c76c146103fb576101b7565b806323b872dd1461030e578063346de50a146103375780633ccfd60b14610362576101b7565b8063081812fc11610195578063081812fc14610240578063095ea7b31461027d57806313fab414146102a657806318160ddd146102e3576101b7565b806301ffc9a7146101bc5780630227b627146101f957806306fdde0314610215575b600080fd5b3480156101c857600080fd5b506101e360048036038101906101de919061244e565b6106be565b6040516101f09190612496565b60405180910390f35b610213600480360381019061020e9190612623565b6107a0565b005b34801561022157600080fd5b5061022a6109b1565b6040516102379190612766565b60405180910390f35b34801561024c57600080fd5b50610267600480360381019061026291906127be565b610a43565b604051610274919061282c565b60405180910390f35b34801561028957600080fd5b506102a4600480360381019061029f9190612873565b610a89565b005b3480156102b257600080fd5b506102cd60048036038101906102c891906128b3565b610ba0565b6040516102da9190612766565b60405180910390f35b3480156102ef57600080fd5b506102f8610c0b565b604051610305919061290b565b60405180910390f35b34801561031a57600080fd5b5061033560048036038101906103309190612926565b610c11565b005b34801561034357600080fd5b5061034c610c71565b6040516103599190612496565b60405180910390f35b61036a610c84565b005b34801561037857600080fd5b50610393600480360381019061038e9190612926565b610d0c565b005b3480156103a157600080fd5b506103bc60048036038101906103b79190612979565b610d2c565b005b3480156103ca57600080fd5b506103e560048036038101906103e091906127be565b610d51565b6040516103f2919061282c565b60405180910390f35b34801561040757600080fd5b50610410610e02565b60405161041d919061290b565b60405180910390f35b34801561043257600080fd5b5061044d600480360381019061044891906127be565b610e08565b005b34801561045b57600080fd5b50610476600480360381019061047191906129a6565b610e1a565b604051610483919061290b565b60405180910390f35b34801561049857600080fd5b506104a1610ed1565b005b3480156104af57600080fd5b506104b8610ee5565b6040516104c591906129f4565b60405180910390f35b3480156104da57600080fd5b506104e3610f0b565b6040516104f0919061282c565b60405180910390f35b34801561050557600080fd5b5061050e610f35565b60405161051b9190612766565b60405180910390f35b34801561053057600080fd5b5061054b60048036038101906105469190612a0f565b610fc7565b005b34801561055957600080fd5b50610574600480360381019061056f91906129a6565b610fdd565b604051610581919061290b565b60405180910390f35b34801561059657600080fd5b506105b160048036038101906105ac9190612af0565b610ff5565b005b3480156105bf57600080fd5b506105da60048036038101906105d591906127be565b611057565b6040516105e79190612766565b60405180910390f35b3480156105fc57600080fd5b50610605611169565b604051610612919061290b565b60405180910390f35b34801561062757600080fd5b50610642600480360381019061063d9190612b73565b61116f565b60405161064f9190612496565b60405180910390f35b34801561066457600080fd5b5061067f600480360381019061067a91906129a6565b611203565b005b34801561068d57600080fd5b506106a860048036038101906106a39190612bb3565b611286565b6040516106b59190612766565b60405180910390f35b60007f80ac58cd000000000000000000000000000000000000000000000000000000007bffffffffffffffffffffffffffffffffffffffffffffffffffffffff1916827bffffffffffffffffffffffffffffffffffffffffffffffffffffffff1916148061078957507f5b5e139f000000000000000000000000000000000000000000000000000000007bffffffffffffffffffffffffffffffffffffffffffffffffffffffff1916827bffffffffffffffffffffffffffffffffffffffffffffffffffffffff1916145b806107995750610798826112dc565b5b9050919050565b600b60009054906101000a900460ff166107ef576040517f08c379a00000000000000000000000000000000000000000000000000000000081526004016107e690612ca6565b60405180910390fd5b600a600c60003373ffffffffffffffffffffffffffffffffffffffff1673ffffffffffffffffffffffffffffffffffffffff1681526020019081526020016000205410610871576040517f08c379a000000000000000000000000000000000000000000000000000000000815260040161086890612d12565b60405180910390fd5b60085434146108b5576040517f08c379a00000000000000000000000000000000000000000000000000000000081526004016108ac90612d7e565b60405180910390fd5b600954600a54116108fb576040517f08c379a00000000000000000000000000000000000000000000000000000000081526004016108f290612dea565b60405180910390fd5b600c60003373ffffffffffffffffffffffffffffffffffffffff1673ffffffffffffffffffffffffffffffffffffffff168152602001908152602001600020600081548092919061094b90612e39565b91905055506009600081548092919061096390612e39565b9190505550606084156109825761097b848484611286565b905061098e565b61098b82610ba0565b90505b6000600954905061099f3382611346565b6109a98183611364565b505050505050565b6060600080546109c090612eb0565b80601f01602080910402602001604051908101604052809291908181526020018280546109ec90612eb0565b8015610a395780601f10610a0e57610100808354040283529160200191610a39565b820191906000526020600020905b815481529060010190602001808311610a1c57829003601f168201915b5050505050905090565b6000610a4e826113d8565b6004600083815260200190815260200160002060009054906101000a900473ffffffffffffffffffffffffffffffffffffffff169050919050565b6000610a9482610d51565b90508073ffffffffffffffffffffffffffffffffffffffff168373ffffffffffffffffffffffffffffffffffffffff1603610b04576040517f08c379a0000000000000000000000000000000000000000000000000000000008152600401610afb90612f53565b60405180910390fd5b8073ffffffffffffffffffffffffffffffffffffffff16610b23611423565b73ffffffffffffffffffffffffffffffffffffffff161480610b525750610b5181610b4c611423565b61116f565b5b610b91576040517f08c379a0000000000000000000000000000000000000000000000000000000008152600401610b8890612fe5565b60405180910390fd5b610b9b838361142b565b505050565b6060610be5610bad6114e4565b83610bb6611509565b610bbe61154b565b604051602001610bd194939291906130d9565b60405160208183030381529060405261158d565b604051602001610bf5919061316e565b6040516020818303038152906040529050919050565b60095481565b610c22610c1c611423565b82611705565b610c61576040517f08c379a0000000000000000000000000000000000000000000000000000000008152600401610c5890613202565b60405180910390fd5b610c6c83838361179a565b505050565b600b60009054906101000a900460ff1681565b610c8c611a00565b6000610c96610f0b565b73ffffffffffffffffffffffffffffffffffffffff1647604051610cb990613253565b60006040518083038185875af1925050503d8060008114610cf6576040519150601f19603f3d011682016040523d82523d6000602084013e610cfb565b606091505b5050905080610d0957600080fd5b50565b610d2783838360405180602001604052806000815250610ff5565b505050565b610d34611a00565b80600b60006101000a81548160ff02191690831515021790555050565b6000806002600084815260200190815260200160002060009054906101000a900473ffffffffffffffffffffffffffffffffffffffff169050600073ffffffffffffffffffffffffffffffffffffffff168173ffffffffffffffffffffffffffffffffffffffff1603610df9576040517f08c379a0000000000000000000000000000000000000000000000000000000008152600401610df0906132b4565b60405180910390fd5b80915050919050565b60085481565b610e10611a00565b80600a8190555050565b60008073ffffffffffffffffffffffffffffffffffffffff168273ffffffffffffffffffffffffffffffffffffffff1603610e8a576040517f08c379a0000000000000000000000000000000000000000000000000000000008152600401610e8190613346565b60405180910390fd5b600360008373ffffffffffffffffffffffffffffffffffffffff1673ffffffffffffffffffffffffffffffffffffffff168152602001908152602001600020549050919050565b610ed9611a00565b610ee36000611a7e565b565b600b60019054906101000a900473ffffffffffffffffffffffffffffffffffffffff1681565b6000600760009054906101000a900473ffffffffffffffffffffffffffffffffffffffff16905090565b606060018054610f4490612eb0565b80601f0160208091040260200160405190810160405280929190818152602001828054610f7090612eb0565b8015610fbd5780601f10610f9257610100808354040283529160200191610fbd565b820191906000526020600020905b815481529060010190602001808311610fa057829003601f168201915b5050505050905090565b610fd9610fd2611423565b8383611b44565b5050565b600c6020528060005260406000206000915090505481565b611006611000611423565b83611705565b611045576040517f08c379a000000000000000000000000000000000000000000000000000000000815260040161103c90613202565b60405180910390fd5b61105184848484611cb0565b50505050565b6060611062826113d8565b600060066000848152602001908152602001600020805461108290612eb0565b80601f01602080910402602001604051908101604052809291908181526020018280546110ae90612eb0565b80156110fb5780601f106110d0576101008083540402835291602001916110fb565b820191906000526020600020905b8154815290600101906020018083116110de57829003601f168201915b50505050509050600061110c611d0c565b90506000815103611121578192505050611164565b60008251111561115657808260405160200161113e929190613366565b60405160208183030381529060405292505050611164565b61115f84611d23565b925050505b919050565b600a5481565b6000600560008473ffffffffffffffffffffffffffffffffffffffff1673ffffffffffffffffffffffffffffffffffffffff16815260200190815260200160002060008373ffffffffffffffffffffffffffffffffffffffff1673ffffffffffffffffffffffffffffffffffffffff16815260200190815260200160002060009054906101000a900460ff16905092915050565b61120b611a00565b600073ffffffffffffffffffffffffffffffffffffffff168173ffffffffffffffffffffffffffffffffffffffff160361127a576040517f08c379a0000000000000000000000000000000000000000000000000000000008152600401611271906133fc565b60405180910390fd5b61128381611a7e565b50565b60606112b48484846040516020016112a093929190613714565b60405160208183030381529060405261158d565b6040516020016112c4919061316e565b60405160208183030381529060405290509392505050565b60007f01ffc9a7000000000000000000000000000000000000000000000000000000007bffffffffffffffffffffffffffffffffffffffffffffffffffffffff1916827bffffffffffffffffffffffffffffffffffffffffffffffffffffffff1916149050919050565b611360828260405180602001604052806000815250611d8b565b5050565b61136d82611de6565b6113ac576040517f08c379a00000000000000000000000000000000000000000000000000000000081526004016113a39061381a565b60405180910390fd5b806006600084815260200190815260200160002090805190602001906113d392919061233f565b505050565b6113e181611de6565b611420576040517f08c379a0000000000000000000000000000000000000000000000000000000008152600401611417906132b4565b60405180910390fd5b50565b600033905090565b816004600083815260200190815260200160002060006101000a81548173ffffffffffffffffffffffffffffffffffffffff021916908373ffffffffffffffffffffffffffffffffffffffff160217905550808273ffffffffffffffffffffffffffffffffffffffff1661149e83610d51565b73ffffffffffffffffffffffffffffffffffffffff167f8c5be1e5ebec7d5bd14f71427d1e84f3dd0314c0f7b2291e5b200ac8c7c3b92560405160405180910390a45050565b6060806040518060800160405280604f8152602001613e68604f913990508091505090565b6060806040518060400160405280601181526020017f273e3c2f696d6167653e203c2f7376673e00000000000000000000000000000081525090508091505090565b6060806040518060400160405280600281526020017f227d00000000000000000000000000000000000000000000000000000000000081525090508091505090565b606060008251036115af57604051806020016040528060008152509050611700565b6000604051806060016040528060408152602001613e2860409139905060006003600285516115de919061383a565b6115e891906138bf565b60046115f491906138f0565b90506000602082611605919061383a565b67ffffffffffffffff81111561161e5761161d6124f8565b5b6040519080825280601f01601f1916602001820160405280156116505781602001600182028036833780820191505090505b509050818152600183018586518101602084015b818310156116bf576003830192508251603f8160121c168501518253600182019150603f81600c1c168501518253600182019150603f8160061c168501518253600182019150603f8116850151825360018201915050611664565b6003895106600181146116d957600281146116e9576116f4565b613d3d60f01b60028303526116f4565b603d60f81b60018303525b50505050508093505050505b919050565b60008061171183610d51565b90508073ffffffffffffffffffffffffffffffffffffffff168473ffffffffffffffffffffffffffffffffffffffff1614806117535750611752818561116f565b5b8061179157508373ffffffffffffffffffffffffffffffffffffffff1661177984610a43565b73ffffffffffffffffffffffffffffffffffffffff16145b91505092915050565b8273ffffffffffffffffffffffffffffffffffffffff166117ba82610d51565b73ffffffffffffffffffffffffffffffffffffffff1614611810576040517f08c379a0000000000000000000000000000000000000000000000000000000008152600401611807906139bc565b60405180910390fd5b600073ffffffffffffffffffffffffffffffffffffffff168273ffffffffffffffffffffffffffffffffffffffff160361187f576040517f08c379a000000000000000000000000000000000000000000000000000000000815260040161187690613a4e565b60405180910390fd5b61188a838383611e52565b61189560008261142b565b6001600360008573ffffffffffffffffffffffffffffffffffffffff1673ffffffffffffffffffffffffffffffffffffffff16815260200190815260200160002060008282546118e59190613a6e565b925050819055506001600360008473ffffffffffffffffffffffffffffffffffffffff1673ffffffffffffffffffffffffffffffffffffffff168152602001908152602001600020600082825461193c919061383a565b92505081905550816002600083815260200190815260200160002060006101000a81548173ffffffffffffffffffffffffffffffffffffffff021916908373ffffffffffffffffffffffffffffffffffffffff160217905550808273ffffffffffffffffffffffffffffffffffffffff168473ffffffffffffffffffffffffffffffffffffffff167fddf252ad1be2c89b69c2b068fc378daa952ba7f163c4a11628f55a4df523b3ef60405160405180910390a46119fb838383611e57565b505050565b611a08611423565b73ffffffffffffffffffffffffffffffffffffffff16611a26610f0b565b73ffffffffffffffffffffffffffffffffffffffff1614611a7c576040517f08c379a0000000000000000000000000000000000000000000000000000000008152600401611a7390613aee565b60405180910390fd5b565b6000600760009054906101000a900473ffffffffffffffffffffffffffffffffffffffff16905081600760006101000a81548173ffffffffffffffffffffffffffffffffffffffff021916908373ffffffffffffffffffffffffffffffffffffffff1602179055508173ffffffffffffffffffffffffffffffffffffffff168173ffffffffffffffffffffffffffffffffffffffff167f8be0079c531659141344cd1fd0a4f28419497f9722a3daafe3b4186f6b6457e060405160405180910390a35050565b8173ffffffffffffffffffffffffffffffffffffffff168373ffffffffffffffffffffffffffffffffffffffff1603611bb2576040517f08c379a0000000000000000000000000000000000000000000000000000000008152600401611ba990613b5a565b60405180910390fd5b80600560008573ffffffffffffffffffffffffffffffffffffffff1673ffffffffffffffffffffffffffffffffffffffff16815260200190815260200160002060008473ffffffffffffffffffffffffffffffffffffffff1673ffffffffffffffffffffffffffffffffffffffff16815260200190815260200160002060006101000a81548160ff0219169083151502179055508173ffffffffffffffffffffffffffffffffffffffff168373ffffffffffffffffffffffffffffffffffffffff167f17307eab39ab6107e8899845ad3d59bd9653f200f220920489ca2b5937696c3183604051611ca39190612496565b60405180910390a3505050565b611cbb84848461179a565b611cc784848484611e5c565b611d06576040517f08c379a0000000000000000000000000000000000000000000000000000000008152600401611cfd90613bec565b60405180910390fd5b50505050565b606060405180602001604052806000815250905090565b6060611d2e826113d8565b6000611d38611d0c565b90506000815111611d585760405180602001604052806000815250611d83565b80611d6284611fe3565b604051602001611d73929190613366565b6040516020818303038152906040525b915050919050565b611d958383612143565b611da26000848484611e5c565b611de1576040517f08c379a0000000000000000000000000000000000000000000000000000000008152600401611dd890613bec565b60405180910390fd5b505050565b60008073ffffffffffffffffffffffffffffffffffffffff166002600084815260200190815260200160002060009054906101000a900473ffffffffffffffffffffffffffffffffffffffff1673ffffffffffffffffffffffffffffffffffffffff1614159050919050565b505050565b505050565b6000611e7d8473ffffffffffffffffffffffffffffffffffffffff1661231c565b15611fd6578373ffffffffffffffffffffffffffffffffffffffff1663150b7a02611ea6611423565b8786866040518563ffffffff1660e01b8152600401611ec89493929190613c61565b6020604051808303816000875af1925050508015611f0457506040513d601f19601f82011682018060405250810190611f019190613cc2565b60015b611f86573d8060008114611f34576040519150601f19603f3d011682016040523d82523d6000602084013e611f39565b606091505b506000815103611f7e576040517f08c379a0000000000000000000000000000000000000000000000000000000008152600401611f7590613bec565b60405180910390fd5b805181602001fd5b63150b7a0260e01b7bffffffffffffffffffffffffffffffffffffffffffffffffffffffff1916817bffffffffffffffffffffffffffffffffffffffffffffffffffffffff191614915050611fdb565b600190505b949350505050565b60606000820361202a576040518060400160405280600181526020017f3000000000000000000000000000000000000000000000000000000000000000815250905061213e565b600082905060005b6000821461205c57808061204590612e39565b915050600a8261205591906138bf565b9150612032565b60008167ffffffffffffffff811115612078576120776124f8565b5b6040519080825280601f01601f1916602001820160405280156120aa5781602001600182028036833780820191505090505b5090505b60008514612137576001826120c39190613a6e565b9150600a856120d29190613cef565b60306120de919061383a565b60f81b8183815181106120f4576120f3613d20565b5b60200101907effffffffffffffffffffffffffffffffffffffffffffffffffffffffffffff1916908160001a905350600a8561213091906138bf565b94506120ae565b8093505050505b919050565b600073ffffffffffffffffffffffffffffffffffffffff168273ffffffffffffffffffffffffffffffffffffffff16036121b2576040517f08c379a00000000000000000000000000000000000000000000000000000000081526004016121a990613d9b565b60405180910390fd5b6121bb81611de6565b156121fb576040517f08c379a00000000000000000000000000000000000000000000000000000000081526004016121f290613e07565b60405180910390fd5b61220760008383611e52565b6001600360008473ffffffffffffffffffffffffffffffffffffffff1673ffffffffffffffffffffffffffffffffffffffff1681526020019081526020016000206000828254612257919061383a565b92505081905550816002600083815260200190815260200160002060006101000a81548173ffffffffffffffffffffffffffffffffffffffff021916908373ffffffffffffffffffffffffffffffffffffffff160217905550808273ffffffffffffffffffffffffffffffffffffffff16600073ffffffffffffffffffffffffffffffffffffffff167fddf252ad1be2c89b69c2b068fc378daa952ba7f163c4a11628f55a4df523b3ef60405160405180910390a461231860008383611e57565b5050565b6000808273ffffffffffffffffffffffffffffffffffffffff163b119050919050565b82805461234b90612eb0565b90600052602060002090601f01602090048101928261236d57600085556123b4565b82601f1061238657805160ff19168380011785556123b4565b828001600101855582156123b4579182015b828111156123b3578251825591602001919060010190612398565b5b5090506123c191906123c5565b5090565b5b808211156123de5760008160009055506001016123c6565b5090565b6000604051905090565b600080fd5b600080fd5b60007fffffffff0000000000000000000000000000000000000000000000000000000082169050919050565b61242b816123f6565b811461243657600080fd5b50565b60008135905061244881612422565b92915050565b600060208284031215612464576124636123ec565b5b600061247284828501612439565b91505092915050565b60008115159050919050565b6124908161247b565b82525050565b60006020820190506124ab6000830184612487565b92915050565b6124ba8161247b565b81146124c557600080fd5b50565b6000813590506124d7816124b1565b92915050565b600080fd5b600080fd5b6000601f19601f8301169050919050565b7f4e487b7100000000000000000000000000000000000000000000000000000000600052604160045260246000fd5b612530826124e7565b810181811067ffffffffffffffff8211171561254f5761254e6124f8565b5b80604052505050565b60006125626123e2565b905061256e8282612527565b919050565b600067ffffffffffffffff82111561258e5761258d6124f8565b5b612597826124e7565b9050602081019050919050565b82818337600083830152505050565b60006125c66125c184612573565b612558565b9050828152602081018484840111156125e2576125e16124e2565b5b6125ed8482856125a4565b509392505050565b600082601f83011261260a576126096124dd565b5b813561261a8482602086016125b3565b91505092915050565b6000806000806080858703121561263d5761263c6123ec565b5b600061264b878288016124c8565b945050602085013567ffffffffffffffff81111561266c5761266b6123f1565b5b612678878288016125f5565b935050604085013567ffffffffffffffff811115612699576126986123f1565b5b6126a5878288016125f5565b925050606085013567ffffffffffffffff8111156126c6576126c56123f1565b5b6126d2878288016125f5565b91505092959194509250565b600081519050919050565b600082825260208201905092915050565b60005b838110156127185780820151818401526020810190506126fd565b83811115612727576000848401525b50505050565b6000612738826126de565b61274281856126e9565b93506127528185602086016126fa565b61275b816124e7565b840191505092915050565b60006020820190508181036000830152612780818461272d565b905092915050565b6000819050919050565b61279b81612788565b81146127a657600080fd5b50565b6000813590506127b881612792565b92915050565b6000602082840312156127d4576127d36123ec565b5b60006127e2848285016127a9565b91505092915050565b600073ffffffffffffffffffffffffffffffffffffffff82169050919050565b6000612816826127eb565b9050919050565b6128268161280b565b82525050565b6000602082019050612841600083018461281d565b92915050565b6128508161280b565b811461285b57600080fd5b50565b60008135905061286d81612847565b92915050565b6000806040838503121561288a576128896123ec565b5b60006128988582860161285e565b92505060206128a9858286016127a9565b9150509250929050565b6000602082840312156128c9576128c86123ec565b5b600082013567ffffffffffffffff8111156128e7576128e66123f1565b5b6128f3848285016125f5565b91505092915050565b61290581612788565b82525050565b600060208201905061292060008301846128fc565b92915050565b60008060006060848603121561293f5761293e6123ec565b5b600061294d8682870161285e565b935050602061295e8682870161285e565b925050604061296f868287016127a9565b9150509250925092565b60006020828403121561298f5761298e6123ec565b5b600061299d848285016124c8565b91505092915050565b6000602082840312156129bc576129bb6123ec565b5b60006129ca8482850161285e565b91505092915050565b60006129de826127eb565b9050919050565b6129ee816129d3565b82525050565b6000602082019050612a0960008301846129e5565b92915050565b60008060408385031215612a2657612a256123ec565b5b6000612a348582860161285e565b9250506020612a45858286016124c8565b9150509250929050565b600067ffffffffffffffff821115612a6a57612a696124f8565b5b612a73826124e7565b9050602081019050919050565b6000612a93612a8e84612a4f565b612558565b905082815260208101848484011115612aaf57612aae6124e2565b5b612aba8482856125a4565b509392505050565b600082601f830112612ad757612ad66124dd565b5b8135612ae7848260208601612a80565b91505092915050565b60008060008060808587031215612b0a57612b096123ec565b5b6000612b188782880161285e565b9450506020612b298782880161285e565b9350506040612b3a878288016127a9565b925050606085013567ffffffffffffffff811115612b5b57612b5a6123f1565b5b612b6787828801612ac2565b91505092959194509250565b60008060408385031215612b8a57612b896123ec565b5b6000612b988582860161285e565b9250506020612ba98582860161285e565b9150509250929050565b600080600060608486031215612bcc57612bcb6123ec565b5b600084013567ffffffffffffffff811115612bea57612be96123f1565b5b612bf6868287016125f5565b935050602084013567ffffffffffffffff811115612c1757612c166123f1565b5b612c23868287016125f5565b925050604084013567ffffffffffffffff811115612c4457612c436123f1565b5b612c50868287016125f5565b9150509250925092565b7f6f776e65722064697361626c6564206d696e74696e6721000000000000000000600082015250565b6000612c906017836126e9565b9150612c9b82612c5a565b602082019050919050565b60006020820190508181036000830152612cbf81612c83565b9050919050565b7f65786365656473206d6178207065722077616c6c657400000000000000000000600082015250565b6000612cfc6016836126e9565b9150612d0782612cc6565b602082019050919050565b60006020820190508181036000830152612d2b81612cef565b9050919050565b7f77726f6e672076616c756520666f72206d696e74696e67207072696365000000600082015250565b6000612d68601d836126e9565b9150612d7382612d32565b602082019050919050565b60006020820190508181036000830152612d9781612d5b565b9050919050565b7f636f6c6c656374696f6e20736f6c64206f757400000000000000000000000000600082015250565b6000612dd46013836126e9565b9150612ddf82612d9e565b602082019050919050565b60006020820190508181036000830152612e0381612dc7565b9050919050565b7f4e487b7100000000000000000000000000000000000000000000000000000000600052601160045260246000fd5b6000612e4482612788565b91507fffffffffffffffffffffffffffffffffffffffffffffffffffffffffffffffff8203612e7657612e75612e0a565b5b600182019050919050565b7f4e487b7100000000000000000000000000000000000000000000000000000000600052602260045260246000fd5b60006002820490506001821680612ec857607f821691505b602082108103612edb57612eda612e81565b5b50919050565b7f4552433732313a20617070726f76616c20746f2063757272656e74206f776e6560008201527f7200000000000000000000000000000000000000000000000000000000000000602082015250565b6000612f3d6021836126e9565b9150612f4882612ee1565b604082019050919050565b60006020820190508181036000830152612f6c81612f30565b9050919050565b7f4552433732313a20617070726f76652063616c6c6572206973206e6f7420746f60008201527f6b656e206f776e6572206e6f7220617070726f76656420666f7220616c6c0000602082015250565b6000612fcf603e836126e9565b9150612fda82612f73565b604082019050919050565b60006020820190508181036000830152612ffe81612fc2565b9050919050565b600081905092915050565b7f7b226e616d65223a20224c434d204f4e2d434841494e4544222c20226465736360008201527f72697074696f6e223a2022412073696d706c6520504e47206261736564206f6e60208201527f2d636861696e204e4654222c2022696d6167655f64617461223a220000000000604082015250565b6000613092605b83613005565b915061309d82613010565b605b82019050919050565b60006130b3826126de565b6130bd8185613005565b93506130cd8185602086016126fa565b80840191505092915050565b60006130e482613085565b91506130f082876130a8565b91506130fc82866130a8565b915061310882856130a8565b915061311482846130a8565b915081905095945050505050565b7f646174613a6170706c69636174696f6e2f6a736f6e3b6261736536342c000000600082015250565b6000613158601d83613005565b915061316382613122565b601d82019050919050565b60006131798261314b565b915061318582846130a8565b915081905092915050565b7f4552433732313a2063616c6c6572206973206e6f7420746f6b656e206f776e6560008201527f72206e6f7220617070726f766564000000000000000000000000000000000000602082015250565b60006131ec602e836126e9565b91506131f782613190565b604082019050919050565b6000602082019050818103600083015261321b816131df565b9050919050565b600081905092915050565b50565b600061323d600083613222565b91506132488261322d565b600082019050919050565b600061325e82613230565b9150819050919050565b7f4552433732313a20696e76616c696420746f6b656e2049440000000000000000600082015250565b600061329e6018836126e9565b91506132a982613268565b602082019050919050565b600060208201905081810360008301526132cd81613291565b9050919050565b7f4552433732313a2061646472657373207a65726f206973206e6f74206120766160008201527f6c6964206f776e65720000000000000000000000000000000000000000000000602082015250565b60006133306029836126e9565b915061333b826132d4565b604082019050919050565b6000602082019050818103600083015261335f81613323565b9050919050565b600061337282856130a8565b915061337e82846130a8565b91508190509392505050565b7f4f776e61626c653a206e6577206f776e657220697320746865207a65726f206160008201527f6464726573730000000000000000000000000000000000000000000000000000602082015250565b60006133e66026836126e9565b91506133f18261338a565b604082019050919050565b60006020820190508181036000830152613415816133d9565b9050919050565b7f7b226e616d65223a202200000000000000000000000000000000000000000000600082015250565b6000613452600a83613005565b915061345d8261341c565b600a82019050919050565b7f222c000000000000000000000000000000000000000000000000000000000000600082015250565b600061349e600283613005565b91506134a982613468565b600282019050919050565b7f22696d6167655f64617461223a20220000000000000000000000000000000000600082015250565b60006134ea600f83613005565b91506134f5826134b4565b600f82019050919050565b7f2261747472696275746573223a205b7b2274726169745f74797065223a20225360008201527f70656564222c202276616c7565223a20317d2c00000000000000000000000000602082015250565b600061355c603383613005565b915061356782613500565b603382019050919050565b7f7b2274726169745f74797065223a202241747461636b222c202276616c75652260008201527f3a20327d2c000000000000000000000000000000000000000000000000000000602082015250565b60006135ce602583613005565b91506135d982613572565b602582019050919050565b7f7b2274726169745f74797065223a2022446566656e6365222c202276616c756560008201527f223a20337d2c0000000000000000000000000000000000000000000000000000602082015250565b6000613640602683613005565b915061364b826135e4565b602682019050919050565b7f7b2274726169745f74797065223a20224d6174657269616c222c202276616c7560008201527f65223a202234227d000000000000000000000000000000000000000000000000602082015250565b60006136b2602883613005565b91506136bd82613656565b602882019050919050565b7f5d7d000000000000000000000000000000000000000000000000000000000000600082015250565b60006136fe600283613005565b9150613709826136c8565b600282019050919050565b600061371f82613445565b915061372b82866130a8565b915061373782856130a8565b915061374282613491565b915061374d826134dd565b915061375982846130a8565b915061376482613491565b915061376f8261354f565b915061377a826135c1565b915061378582613633565b9150613790826136a5565b915061379b826136f1565b9150819050949350505050565b7f45524337323155524953746f726167653a2055524920736574206f66206e6f6e60008201527f6578697374656e7420746f6b656e000000000000000000000000000000000000602082015250565b6000613804602e836126e9565b915061380f826137a8565b604082019050919050565b60006020820190508181036000830152613833816137f7565b9050919050565b600061384582612788565b915061385083612788565b9250827fffffffffffffffffffffffffffffffffffffffffffffffffffffffffffffffff0382111561388557613884612e0a565b5b828201905092915050565b7f4e487b7100000000000000000000000000000000000000000000000000000000600052601260045260246000fd5b60006138ca82612788565b91506138d583612788565b9250826138e5576138e4613890565b5b828204905092915050565b60006138fb82612788565b915061390683612788565b9250817fffffffffffffffffffffffffffffffffffffffffffffffffffffffffffffffff048311821515161561393f5761393e612e0a565b5b828202905092915050565b7f4552433732313a207472616e736665722066726f6d20696e636f72726563742060008201527f6f776e6572000000000000000000000000000000000000000000000000000000602082015250565b60006139a66025836126e9565b91506139b18261394a565b604082019050919050565b600060208201905081810360008301526139d581613999565b9050919050565b7f4552433732313a207472616e7366657220746f20746865207a65726f2061646460008201527f7265737300000000000000000000000000000000000000000000000000000000602082015250565b6000613a386024836126e9565b9150613a43826139dc565b604082019050919050565b60006020820190508181036000830152613a6781613a2b565b9050919050565b6000613a7982612788565b9150613a8483612788565b925082821015613a9757613a96612e0a565b5b828203905092915050565b7f4f776e61626c653a2063616c6c6572206973206e6f7420746865206f776e6572600082015250565b6000613ad86020836126e9565b9150613ae382613aa2565b602082019050919050565b60006020820190508181036000830152613b0781613acb565b9050919050565b7f4552433732313a20617070726f766520746f2063616c6c657200000000000000600082015250565b6000613b446019836126e9565b9150613b4f82613b0e565b602082019050919050565b60006020820190508181036000830152613b7381613b37565b9050919050565b7f4552433732313a207472616e7366657220746f206e6f6e20455243373231526560008201527f63656976657220696d706c656d656e7465720000000000000000000000000000602082015250565b6000613bd66032836126e9565b9150613be182613b7a565b604082019050919050565b60006020820190508181036000830152613c0581613bc9565b9050919050565b600081519050919050565b600082825260208201905092915050565b6000613c3382613c0c565b613c3d8185613c17565b9350613c4d8185602086016126fa565b613c56816124e7565b840191505092915050565b6000608082019050613c76600083018761281d565b613c83602083018661281d565b613c9060408301856128fc565b8181036060830152613ca28184613c28565b905095945050505050565b600081519050613cbc81612422565b92915050565b600060208284031215613cd857613cd76123ec565b5b6000613ce684828501613cad565b91505092915050565b6000613cfa82612788565b9150613d0583612788565b925082613d1557613d14613890565b5b828206905092915050565b7f4e487b7100000000000000000000000000000000000000000000000000000000600052603260045260246000fd5b7f4552433732313a206d696e7420746f20746865207a65726f2061646472657373600082015250565b6000613d856020836126e9565b9150613d9082613d4f565b602082019050919050565b60006020820190508181036000830152613db481613d78565b9050919050565b7f4552433732313a20746f6b656e20616c7265616479206d696e74656400000000600082015250565b6000613df1601c836126e9565b9150613dfc82613dbb565b602082019050919050565b60006020820190508181036000830152613e2081613de4565b905091905056fe4142434445464748494a4b4c4d4e4f505152535455565758595a6162636465666768696a6b6c6d6e6f707172737475767778797a303132333435363738392b2f3c7376672077696474683d2732303027206865696768743d273230302720786d6c6e733d27687474703a2f2f7777772e77332e6f72672f323030302f737667273e203c696d61676520687265663d27a264697066735822122007500a070a7c34779757869bc7b017ecea697a380c149015e8faedbe30d2547f64736f6c634300080e0033",
  "immutableReferences": {},
  "source": "// SPDX-License-Identifier: MIT\npragma solidity >=0.4.22 <0.9.0;\n\n//import \"@openzeppelin/contracts/token/ERC721/extensions/ERC721URIStorage.sol\"\n\nimport \"../node_modules/@openzeppelin/contracts/token/ERC721/extensions/ERC721URIStorage.sol\";\nimport \"../node_modules/@openzeppelin/contracts/access/Ownable.sol\";\nimport \"../node_modules/@openzeppelin/contracts/utils/Counters.sol\";\n\nlibrary Base64 {\n    string internal constant TABLE_ENCODE = 'ABCDEFGHIJKLMNOPQRSTUVWXYZabcdefghijklmnopqrstuvwxyz0123456789+/';\n    bytes  internal constant TABLE_DECODE = hex\"0000000000000000000000000000000000000000000000000000000000000000\"\n                                            hex\"00000000000000000000003e0000003f3435363738393a3b3c3d000000000000\"\n                                            hex\"00000102030405060708090a0b0c0d0e0f101112131415161718190000000000\"\n                                            hex\"001a1b1c1d1e1f202122232425262728292a2b2c2d2e2f303132330000000000\";\n\n    function encode(bytes memory data) internal pure returns (string memory) {\n        if (data.length == 0) return '';\n\n        // load the table into memory\n        string memory table = TABLE_ENCODE;\n\n        // multiply by 4/3 rounded up\n        uint256 encodedLen = 4 * ((data.length + 2) / 3);\n\n        // add some extra buffer at the end required for the writing\n        string memory result = new string(encodedLen + 32);\n\n        assembly {\n            // set the actual output length\n            mstore(result, encodedLen)\n\n            // prepare the lookup table\n            let tablePtr := add(table, 1)\n\n            // input ptr\n            let dataPtr := data\n            let endPtr := add(dataPtr, mload(data))\n\n            // result ptr, jump over length\n            let resultPtr := add(result, 32)\n\n            // run over the input, 3 bytes at a time\n            for {} lt(dataPtr, endPtr) {}\n            {\n                // read 3 bytes\n                dataPtr := add(dataPtr, 3)\n                let input := mload(dataPtr)\n\n                // write 4 characters\n                mstore8(resultPtr, mload(add(tablePtr, and(shr(18, input), 0x3F))))\n                resultPtr := add(resultPtr, 1)\n                mstore8(resultPtr, mload(add(tablePtr, and(shr(12, input), 0x3F))))\n                resultPtr := add(resultPtr, 1)\n                mstore8(resultPtr, mload(add(tablePtr, and(shr( 6, input), 0x3F))))\n                resultPtr := add(resultPtr, 1)\n                mstore8(resultPtr, mload(add(tablePtr, and(        input,  0x3F))))\n                resultPtr := add(resultPtr, 1)\n            }\n\n            // padding with '='\n            switch mod(mload(data), 3)\n            case 1 { mstore(sub(resultPtr, 2), shl(240, 0x3d3d)) }\n            case 2 { mstore(sub(resultPtr, 1), shl(248, 0x3d)) }\n        }\n\n        return result;\n    }\n\n    function decode(string memory _data) internal pure returns (bytes memory) {\n        bytes memory data = bytes(_data);\n\n        if (data.length == 0) return new bytes(0);\n        require(data.length % 4 == 0, \"invalid base64 decoder input\");\n\n        // load the table into memory\n        bytes memory table = TABLE_DECODE;\n\n        // every 4 characters represent 3 bytes\n        uint256 decodedLen = (data.length / 4) * 3;\n\n        // add some extra buffer at the end required for the writing\n        bytes memory result = new bytes(decodedLen + 32);\n\n        assembly {\n            // padding with '='\n            let lastBytes := mload(add(data, mload(data)))\n            if eq(and(lastBytes, 0xFF), 0x3d) {\n                decodedLen := sub(decodedLen, 1)\n                if eq(and(lastBytes, 0xFFFF), 0x3d3d) {\n                    decodedLen := sub(decodedLen, 1)\n                }\n            }\n\n            // set the actual output length\n            mstore(result, decodedLen)\n\n            // prepare the lookup table\n            let tablePtr := add(table, 1)\n\n            // input ptr\n            let dataPtr := data\n            let endPtr := add(dataPtr, mload(data))\n\n            // result ptr, jump over length\n            let resultPtr := add(result, 32)\n\n            // run over the input, 4 characters at a time\n            for {} lt(dataPtr, endPtr) {}\n            {\n               // read 4 characters\n               dataPtr := add(dataPtr, 4)\n               let input := mload(dataPtr)\n\n               // write 3 bytes\n               let output := add(\n                   add(\n                       shl(18, and(mload(add(tablePtr, and(shr(24, input), 0xFF))), 0xFF)),\n                       shl(12, and(mload(add(tablePtr, and(shr(16, input), 0xFF))), 0xFF))),\n                   add(\n                       shl( 6, and(mload(add(tablePtr, and(shr( 8, input), 0xFF))), 0xFF)),\n                               and(mload(add(tablePtr, and(        input , 0xFF))), 0xFF)\n                    )\n                )\n                mstore(resultPtr, shl(232, output))\n                resultPtr := add(resultPtr, 3)\n            }\n        }\n\n        return result;\n    }\n}\n\ncontract OnChainNFT is ERC721URIStorage, Ownable {\n\n    uint256 public mintPrice;\n    uint256 public totalSupply;\n    uint256 public maxSupply;\n    bool public isMintEnabled=true;\n\n    address payable public withdrawWallet;\n    mapping(address => uint256) public mintedWallets;\n\n    constructor() payable ERC721(\"OnChainPixelart\", \"ONP\") {\n        mintPrice = 0.001 ether;\n        totalSupply = 0;\n        maxSupply = 999;\n    }\n\n    function toggleIsMintEnabled(bool isMintEnabled_) external onlyOwner {\n        isMintEnabled = isMintEnabled_;\n    }\n\n    function setMaxSupply(uint256 maxSupply_) external onlyOwner {\n        maxSupply = maxSupply_;\n    }\n\n        function getSvg1() private pure returns (string memory) {\n        string memory svg1;\n        svg1 = \"<svg width='200' height='200' xmlns='http://www.w3.org/2000/svg'> <image href='\";\n        return svg1;\n    }    \n\n        function getSvg2() private pure returns (string memory) {\n        string memory svg2;\n        svg2 = \"'></image> </svg>\";\n        return svg2;\n    } \n\n    function addCurlyBrace() private pure returns (string memory){\n        string memory curlyBrace;\n        curlyBrace = '\"}';\n        return curlyBrace;\n    }\n\n\n// '{\"name\": \"LCM ON-CHAINED\", \"description\": \"A simple PNG based on-chain NFT\", \"image_data\":\"',\n\n\n    /* Generates a tokenURI using Base64 string as the image */\n    function formatTokenURIforOpenSea(/* string memory name, string memory description, */string memory imageURI)\n        public\n        pure\n        returns (string memory)\n    {\n        \n        return\n            string(\n                abi.encodePacked(\"data:application/json;base64,\",\n                            Base64.encode(\n                      bytes(string(\n                        abi.encodePacked(\n                            '{\"name\": \"LCM ON-CHAINED\", \"description\": \"A simple PNG based on-chain NFT\", \"image_data\":\"',\n                            getSvg1(),\n                            imageURI,\n                            getSvg2(),\n                            addCurlyBrace()\n                          \n                        ))\n                    )\n                       )\n                )\n            );\n    }\n\n/*       function formatTokenURI(string memory name, string memory description,string memory imageURI)\n        public\n        pure\n        returns (string memory)\n    {\n        \n        return\n            string(\n                abi.encodePacked(\"data:application/json;base64,\",\n                            Base64.encode(\n                      bytes(string(\n                        abi.encodePacked(\n\n                    '{\"name\": \"',name,description,'\",',\n                    '\"image_data\": \"',   getSvg1(),\n                            imageURI,\n                            getSvg2(),\n                            addCurlyBrace(), '\",',\n                    '\"attributes\": [{\"trait_type\": \"Speed\", \"value\": 1},',\n                    '{\"trait_type\": \"Attack\", \"value\": 2},',\n                    '{\"trait_type\": \"Defence\", \"value\": 3},',\n                    '{\"trait_type\": \"Material\", \"value\": \"4\"}',\n                    ']}'\n\n                        ))\n                    )\n                       )\n                )\n            );\n    } */\n\n        function formatTokenURI(string memory name, string memory description,string memory imageURI)\n        public\n        pure\n        returns (string memory)\n    {\n        \n        return\n            string(\n                abi.encodePacked(\"data:application/json;base64,\",\n                            Base64.encode(\n                      bytes(string(\n                        abi.encodePacked(\n\n                    '{\"name\": \"',name,description,'\",',\n                    '\"image_data\": \"',imageURI,'\",',\n                    '\"attributes\": [{\"trait_type\": \"Speed\", \"value\": 1},',\n                    '{\"trait_type\": \"Attack\", \"value\": 2},',\n                    '{\"trait_type\": \"Defence\", \"value\": 3},',\n                    '{\"trait_type\": \"Material\", \"value\": \"4\"}',\n                    ']}'\n\n                        ))\n                    )\n                       )\n                )\n            );\n    }\n        function mint(bool marketplaceCheck, string memory name, string memory description,string memory imageURI) external payable {\n\n            require(isMintEnabled, \"owner disabled minting!\");\n            require(mintedWallets[msg.sender]<10, 'exceeds max per wallet');\n            require(msg.value == mintPrice,'wrong value for minting price');\n            require(maxSupply> totalSupply,'collection sold out');\n\n            mintedWallets[msg.sender]++;\n            totalSupply++;\n\n\n            string memory tokenURI;\n            \n            if(marketplaceCheck){\n            tokenURI = formatTokenURI(name, description, imageURI); \n    \n            }  else {\n            tokenURI = formatTokenURIforOpenSea(imageURI);\n            }\n\n            uint256 tokenId=totalSupply;\n            \n            _safeMint(msg.sender, tokenId);\n            _setTokenURI(tokenId, tokenURI);\n        }\n\n  function withdraw() public payable onlyOwner {\n    (bool os, ) = payable(owner()).call{value: address(this).balance}(\"\");\n    require(os);\n  }\n  \n//   contract MyCollectible is ERC721 {\n//     function contractURI() public view returns (string memory) {\n//         return \"https://metadata-url.com/my-metadata\";\n//     }\n//}\n   \n}\n",
  "sourcePath": "/home/brate/Desktop/web3_pixelart_full/react_web3_pixelart_creator/truffle/contracts/OnChainNFT.sol",
  "compiler": {
    "name": "solc",
    "version": "0.8.14+commit.80d49f37.Emscripten.clang"
  },
  "schemaVersion": "3.4.10",
  "updatedAt": "2022-09-24T21:34:00.073Z",
  "networkType": "ethereum",
  "devdoc": {
    "kind": "dev",
    "methods": {
      "approve(address,uint256)": {
        "details": "See {IERC721-approve}."
      },
      "balanceOf(address)": {
        "details": "See {IERC721-balanceOf}."
      },
      "getApproved(uint256)": {
        "details": "See {IERC721-getApproved}."
      },
      "isApprovedForAll(address,address)": {
        "details": "See {IERC721-isApprovedForAll}."
      },
      "name()": {
        "details": "See {IERC721Metadata-name}."
      },
      "owner()": {
        "details": "Returns the address of the current owner."
      },
      "ownerOf(uint256)": {
        "details": "See {IERC721-ownerOf}."
      },
      "renounceOwnership()": {
        "details": "Leaves the contract without owner. It will not be possible to call `onlyOwner` functions anymore. Can only be called by the current owner. NOTE: Renouncing ownership will leave the contract without an owner, thereby removing any functionality that is only available to the owner."
      },
      "safeTransferFrom(address,address,uint256)": {
        "details": "See {IERC721-safeTransferFrom}."
      },
      "safeTransferFrom(address,address,uint256,bytes)": {
        "details": "See {IERC721-safeTransferFrom}."
      },
      "setApprovalForAll(address,bool)": {
        "details": "See {IERC721-setApprovalForAll}."
      },
      "supportsInterface(bytes4)": {
        "details": "See {IERC165-supportsInterface}."
      },
      "symbol()": {
        "details": "See {IERC721Metadata-symbol}."
      },
      "tokenURI(uint256)": {
        "details": "See {IERC721Metadata-tokenURI}."
      },
      "transferFrom(address,address,uint256)": {
        "details": "See {IERC721-transferFrom}."
      },
      "transferOwnership(address)": {
        "details": "Transfers ownership of the contract to a new account (`newOwner`). Can only be called by the current owner."
      }
    },
    "version": 1
  },
  "userdoc": {
    "kind": "user",
    "methods": {},
    "version": 1
  }
}