{
  "contractName": "OnChainNFT",
  "abi": [
    {
      "inputs": [],
      "stateMutability": "payable",
      "type": "constructor",
      "payable": true
    },
    {
      "anonymous": false,
      "inputs": [
        {
          "indexed": true,
          "internalType": "address",
          "name": "owner",
          "type": "address"
        },
        {
          "indexed": true,
          "internalType": "address",
          "name": "approved",
          "type": "address"
        },
        {
          "indexed": true,
          "internalType": "uint256",
          "name": "tokenId",
          "type": "uint256"
        }
      ],
      "name": "Approval",
      "type": "event"
    },
    {
      "anonymous": false,
      "inputs": [
        {
          "indexed": true,
          "internalType": "address",
          "name": "owner",
          "type": "address"
        },
        {
          "indexed": true,
          "internalType": "address",
          "name": "operator",
          "type": "address"
        },
        {
          "indexed": false,
          "internalType": "bool",
          "name": "approved",
          "type": "bool"
        }
      ],
      "name": "ApprovalForAll",
      "type": "event"
    },
    {
      "anonymous": false,
      "inputs": [
        {
          "indexed": true,
          "internalType": "address",
          "name": "previousOwner",
          "type": "address"
        },
        {
          "indexed": true,
          "internalType": "address",
          "name": "newOwner",
          "type": "address"
        }
      ],
      "name": "OwnershipTransferred",
      "type": "event"
    },
    {
      "anonymous": false,
      "inputs": [
        {
          "indexed": true,
          "internalType": "address",
          "name": "from",
          "type": "address"
        },
        {
          "indexed": true,
          "internalType": "address",
          "name": "to",
          "type": "address"
        },
        {
          "indexed": true,
          "internalType": "uint256",
          "name": "tokenId",
          "type": "uint256"
        }
      ],
      "name": "Transfer",
      "type": "event"
    },
    {
      "inputs": [
        {
          "internalType": "address",
          "name": "to",
          "type": "address"
        },
        {
          "internalType": "uint256",
          "name": "tokenId",
          "type": "uint256"
        }
      ],
      "name": "approve",
      "outputs": [],
      "stateMutability": "nonpayable",
      "type": "function"
    },
    {
      "inputs": [
        {
          "internalType": "address",
          "name": "owner",
          "type": "address"
        }
      ],
      "name": "balanceOf",
      "outputs": [
        {
          "internalType": "uint256",
          "name": "",
          "type": "uint256"
        }
      ],
      "stateMutability": "view",
      "type": "function",
      "constant": true
    },
    {
      "inputs": [
        {
          "internalType": "uint256",
          "name": "tokenId",
          "type": "uint256"
        }
      ],
      "name": "getApproved",
      "outputs": [
        {
          "internalType": "address",
          "name": "",
          "type": "address"
        }
      ],
      "stateMutability": "view",
      "type": "function",
      "constant": true
    },
    {
      "inputs": [
        {
          "internalType": "address",
          "name": "owner",
          "type": "address"
        },
        {
          "internalType": "address",
          "name": "operator",
          "type": "address"
        }
      ],
      "name": "isApprovedForAll",
      "outputs": [
        {
          "internalType": "bool",
          "name": "",
          "type": "bool"
        }
      ],
      "stateMutability": "view",
      "type": "function",
      "constant": true
    },
    {
      "inputs": [],
      "name": "isMintEnabled",
      "outputs": [
        {
          "internalType": "bool",
          "name": "",
          "type": "bool"
        }
      ],
      "stateMutability": "view",
      "type": "function",
      "constant": true
    },
    {
      "inputs": [],
      "name": "maxSupply",
      "outputs": [
        {
          "internalType": "uint256",
          "name": "",
          "type": "uint256"
        }
      ],
      "stateMutability": "view",
      "type": "function",
      "constant": true
    },
    {
      "inputs": [],
      "name": "mintPrice",
      "outputs": [
        {
          "internalType": "uint256",
          "name": "",
          "type": "uint256"
        }
      ],
      "stateMutability": "view",
      "type": "function",
      "constant": true
    },
    {
      "inputs": [
        {
          "internalType": "address",
          "name": "",
          "type": "address"
        }
      ],
      "name": "mintedWallets",
      "outputs": [
        {
          "internalType": "uint256",
          "name": "",
          "type": "uint256"
        }
      ],
      "stateMutability": "view",
      "type": "function",
      "constant": true
    },
    {
      "inputs": [],
      "name": "name",
      "outputs": [
        {
          "internalType": "string",
          "name": "",
          "type": "string"
        }
      ],
      "stateMutability": "view",
      "type": "function",
      "constant": true
    },
    {
      "inputs": [],
      "name": "owner",
      "outputs": [
        {
          "internalType": "address",
          "name": "",
          "type": "address"
        }
      ],
      "stateMutability": "view",
      "type": "function",
      "constant": true
    },
    {
      "inputs": [
        {
          "internalType": "uint256",
          "name": "tokenId",
          "type": "uint256"
        }
      ],
      "name": "ownerOf",
      "outputs": [
        {
          "internalType": "address",
          "name": "",
          "type": "address"
        }
      ],
      "stateMutability": "view",
      "type": "function",
      "constant": true
    },
    {
      "inputs": [],
      "name": "renounceOwnership",
      "outputs": [],
      "stateMutability": "nonpayable",
      "type": "function"
    },
    {
      "inputs": [
        {
          "internalType": "address",
          "name": "from",
          "type": "address"
        },
        {
          "internalType": "address",
          "name": "to",
          "type": "address"
        },
        {
          "internalType": "uint256",
          "name": "tokenId",
          "type": "uint256"
        }
      ],
      "name": "safeTransferFrom",
      "outputs": [],
      "stateMutability": "nonpayable",
      "type": "function"
    },
    {
      "inputs": [
        {
          "internalType": "address",
          "name": "from",
          "type": "address"
        },
        {
          "internalType": "address",
          "name": "to",
          "type": "address"
        },
        {
          "internalType": "uint256",
          "name": "tokenId",
          "type": "uint256"
        },
        {
          "internalType": "bytes",
          "name": "data",
          "type": "bytes"
        }
      ],
      "name": "safeTransferFrom",
      "outputs": [],
      "stateMutability": "nonpayable",
      "type": "function"
    },
    {
      "inputs": [
        {
          "internalType": "address",
          "name": "operator",
          "type": "address"
        },
        {
          "internalType": "bool",
          "name": "approved",
          "type": "bool"
        }
      ],
      "name": "setApprovalForAll",
      "outputs": [],
      "stateMutability": "nonpayable",
      "type": "function"
    },
    {
      "inputs": [
        {
          "internalType": "bytes4",
          "name": "interfaceId",
          "type": "bytes4"
        }
      ],
      "name": "supportsInterface",
      "outputs": [
        {
          "internalType": "bool",
          "name": "",
          "type": "bool"
        }
      ],
      "stateMutability": "view",
      "type": "function",
      "constant": true
    },
    {
      "inputs": [],
      "name": "symbol",
      "outputs": [
        {
          "internalType": "string",
          "name": "",
          "type": "string"
        }
      ],
      "stateMutability": "view",
      "type": "function",
      "constant": true
    },
    {
      "inputs": [
        {
          "internalType": "uint256",
          "name": "tokenId",
          "type": "uint256"
        }
      ],
      "name": "tokenURI",
      "outputs": [
        {
          "internalType": "string",
          "name": "",
          "type": "string"
        }
      ],
      "stateMutability": "view",
      "type": "function",
      "constant": true
    },
    {
      "inputs": [],
      "name": "totalSupply",
      "outputs": [
        {
          "internalType": "uint256",
          "name": "",
          "type": "uint256"
        }
      ],
      "stateMutability": "view",
      "type": "function",
      "constant": true
    },
    {
      "inputs": [
        {
          "internalType": "address",
          "name": "from",
          "type": "address"
        },
        {
          "internalType": "address",
          "name": "to",
          "type": "address"
        },
        {
          "internalType": "uint256",
          "name": "tokenId",
          "type": "uint256"
        }
      ],
      "name": "transferFrom",
      "outputs": [],
      "stateMutability": "nonpayable",
      "type": "function"
    },
    {
      "inputs": [
        {
          "internalType": "address",
          "name": "newOwner",
          "type": "address"
        }
      ],
      "name": "transferOwnership",
      "outputs": [],
      "stateMutability": "nonpayable",
      "type": "function"
    },
    {
      "inputs": [],
      "name": "withdrawWallet",
      "outputs": [
        {
          "internalType": "address payable",
          "name": "",
          "type": "address"
        }
      ],
      "stateMutability": "view",
      "type": "function",
      "constant": true
    },
    {
      "inputs": [
        {
          "internalType": "bool",
          "name": "isMintEnabled_",
          "type": "bool"
        }
      ],
      "name": "toggleIsMintEnabled",
      "outputs": [],
      "stateMutability": "nonpayable",
      "type": "function"
    },
    {
      "inputs": [
        {
          "internalType": "uint256",
          "name": "maxSupply_",
          "type": "uint256"
        }
      ],
      "name": "setMaxSupply",
      "outputs": [],
      "stateMutability": "nonpayable",
      "type": "function"
    },
    {
      "inputs": [
        {
          "internalType": "string",
          "name": "imageURI",
          "type": "string"
        }
      ],
      "name": "formatTokenURI",
      "outputs": [
        {
          "internalType": "string",
          "name": "",
          "type": "string"
        }
      ],
      "stateMutability": "pure",
      "type": "function",
      "constant": true
    },
    {
      "inputs": [
        {
          "internalType": "string",
          "name": "imageURI",
          "type": "string"
        }
      ],
      "name": "mint",
      "outputs": [],
      "stateMutability": "payable",
      "type": "function",
      "payable": true
    },
    {
      "inputs": [],
      "name": "withdraw",
      "outputs": [],
      "stateMutability": "payable",
      "type": "function",
      "payable": true
    }
  ],
  "bytecode": "0x60806040526001600b60006101000a81548160ff0219169083151502179055506040518060400160405280600f81526020017f4f6e436861696e506978656c61727400000000000000000000000000000000008152506040518060400160405280600381526020017f4f4e5000000000000000000000000000000000000000000000000000000000008152508160009080519060200190620000a3929190620001d2565b508060019080519060200190620000bc929190620001d2565b505050620000df620000d36200010460201b60201c565b6200010c60201b60201c565b66038d7ea4c6800060088190555060006009819055506103e7600a81905550620002e6565b600033905090565b6000600760009054906101000a900473ffffffffffffffffffffffffffffffffffffffff16905081600760006101000a81548173ffffffffffffffffffffffffffffffffffffffff021916908373ffffffffffffffffffffffffffffffffffffffff1602179055508173ffffffffffffffffffffffffffffffffffffffff168173ffffffffffffffffffffffffffffffffffffffff167f8be0079c531659141344cd1fd0a4f28419497f9722a3daafe3b4186f6b6457e060405160405180910390a35050565b828054620001e090620002b1565b90600052602060002090601f01602090048101928262000204576000855562000250565b82601f106200021f57805160ff191683800117855562000250565b8280016001018555821562000250579182015b828111156200024f57825182559160200191906001019062000232565b5b5090506200025f919062000263565b5090565b5b808211156200027e57600081600090555060010162000264565b5090565b7f4e487b7100000000000000000000000000000000000000000000000000000000600052602260045260246000fd5b60006002820490506001821680620002ca57607f821691505b602082108103620002e057620002df62000282565b5b50919050565b61393480620002f66000396000f3fe60806040526004361061019c5760003560e01c806370a08231116100ec578063ada7c4ed1161008a578063d5abeb0111610064578063d5abeb01146105b9578063d85d3d27146105e4578063e985e9c514610600578063f2fde38b1461063d5761019c565b8063ada7c4ed14610516578063b88d4fde14610553578063c87b56dd1461057c5761019c565b806385d178f4116100c657806385d178f41461046c5780638da5cb5b1461049757806395d89b41146104c2578063a22cb465146104ed5761019c565b806370a08231146103db578063715018a61461041857806371aee1931461042f5761019c565b8063346de50a11610159578063529eb6a811610133578063529eb6a8146103215780636352211e1461034a5780636817c76c146103875780636f8b44b0146103b25761019c565b8063346de50a146102c35780633ccfd60b146102ee57806342842e0e146102f85761019c565b806301ffc9a7146101a157806306fdde03146101de578063081812fc14610209578063095ea7b31461024657806318160ddd1461026f57806323b872dd1461029a575b600080fd5b3480156101ad57600080fd5b506101c860048036038101906101c39190612384565b610666565b6040516101d591906123cc565b60405180910390f35b3480156101ea57600080fd5b506101f3610748565b6040516102009190612480565b60405180910390f35b34801561021557600080fd5b50610230600480360381019061022b91906124d8565b6107da565b60405161023d9190612546565b60405180910390f35b34801561025257600080fd5b5061026d6004803603810190610268919061258d565b610820565b005b34801561027b57600080fd5b50610284610937565b60405161029191906125dc565b60405180910390f35b3480156102a657600080fd5b506102c160048036038101906102bc91906125f7565b61093d565b005b3480156102cf57600080fd5b506102d861099d565b6040516102e591906123cc565b60405180910390f35b6102f66109b0565b005b34801561030457600080fd5b5061031f600480360381019061031a91906125f7565b610a38565b005b34801561032d57600080fd5b5061034860048036038101906103439190612676565b610a58565b005b34801561035657600080fd5b50610371600480360381019061036c91906124d8565b610a7d565b60405161037e9190612546565b60405180910390f35b34801561039357600080fd5b5061039c610b2e565b6040516103a991906125dc565b60405180910390f35b3480156103be57600080fd5b506103d960048036038101906103d491906124d8565b610b34565b005b3480156103e757600080fd5b5061040260048036038101906103fd91906126a3565b610b46565b60405161040f91906125dc565b60405180910390f35b34801561042457600080fd5b5061042d610bfd565b005b34801561043b57600080fd5b5061045660048036038101906104519190612805565b610c11565b6040516104639190612480565b60405180910390f35b34801561047857600080fd5b50610481610c7c565b60405161048e919061286f565b60405180910390f35b3480156104a357600080fd5b506104ac610ca2565b6040516104b99190612546565b60405180910390f35b3480156104ce57600080fd5b506104d7610ccc565b6040516104e49190612480565b60405180910390f35b3480156104f957600080fd5b50610514600480360381019061050f919061288a565b610d5e565b005b34801561052257600080fd5b5061053d600480360381019061053891906126a3565b610d74565b60405161054a91906125dc565b60405180910390f35b34801561055f57600080fd5b5061057a6004803603810190610575919061296b565b610d8c565b005b34801561058857600080fd5b506105a3600480360381019061059e91906124d8565b610dee565b6040516105b09190612480565b60405180910390f35b3480156105c557600080fd5b506105ce610f00565b6040516105db91906125dc565b60405180910390f35b6105fe60048036038101906105f99190612805565b610f06565b005b34801561060c57600080fd5b50610627600480360381019061062291906129ee565b6110fb565b60405161063491906123cc565b60405180910390f35b34801561064957600080fd5b50610664600480360381019061065f91906126a3565b61118f565b005b60007f80ac58cd000000000000000000000000000000000000000000000000000000007bffffffffffffffffffffffffffffffffffffffffffffffffffffffff1916827bffffffffffffffffffffffffffffffffffffffffffffffffffffffff1916148061073157507f5b5e139f000000000000000000000000000000000000000000000000000000007bffffffffffffffffffffffffffffffffffffffffffffffffffffffff1916827bffffffffffffffffffffffffffffffffffffffffffffffffffffffff1916145b80610741575061074082611212565b5b9050919050565b60606000805461075790612a5d565b80601f016020809104026020016040519081016040528092919081815260200182805461078390612a5d565b80156107d05780601f106107a5576101008083540402835291602001916107d0565b820191906000526020600020905b8154815290600101906020018083116107b357829003601f168201915b5050505050905090565b60006107e58261127c565b6004600083815260200190815260200160002060009054906101000a900473ffffffffffffffffffffffffffffffffffffffff169050919050565b600061082b82610a7d565b90508073ffffffffffffffffffffffffffffffffffffffff168373ffffffffffffffffffffffffffffffffffffffff160361089b576040517f08c379a000000000000000000000000000000000000000000000000000000000815260040161089290612b00565b60405180910390fd5b8073ffffffffffffffffffffffffffffffffffffffff166108ba6112c7565b73ffffffffffffffffffffffffffffffffffffffff1614806108e957506108e8816108e36112c7565b6110fb565b5b610928576040517f08c379a000000000000000000000000000000000000000000000000000000000815260040161091f90612b92565b60405180910390fd5b61093283836112cf565b505050565b60095481565b61094e6109486112c7565b82611388565b61098d576040517f08c379a000000000000000000000000000000000000000000000000000000000815260040161098490612c24565b60405180910390fd5b61099883838361141d565b505050565b600b60009054906101000a900460ff1681565b6109b8611683565b60006109c2610ca2565b73ffffffffffffffffffffffffffffffffffffffff16476040516109e590612c75565b60006040518083038185875af1925050503d8060008114610a22576040519150601f19603f3d011682016040523d82523d6000602084013e610a27565b606091505b5050905080610a3557600080fd5b50565b610a5383838360405180602001604052806000815250610d8c565b505050565b610a60611683565b80600b60006101000a81548160ff02191690831515021790555050565b6000806002600084815260200190815260200160002060009054906101000a900473ffffffffffffffffffffffffffffffffffffffff169050600073ffffffffffffffffffffffffffffffffffffffff168173ffffffffffffffffffffffffffffffffffffffff1603610b25576040517f08c379a0000000000000000000000000000000000000000000000000000000008152600401610b1c90612cd6565b60405180910390fd5b80915050919050565b60085481565b610b3c611683565b80600a8190555050565b60008073ffffffffffffffffffffffffffffffffffffffff168273ffffffffffffffffffffffffffffffffffffffff1603610bb6576040517f08c379a0000000000000000000000000000000000000000000000000000000008152600401610bad90612d68565b60405180910390fd5b600360008373ffffffffffffffffffffffffffffffffffffffff1673ffffffffffffffffffffffffffffffffffffffff168152602001908152602001600020549050919050565b610c05611683565b610c0f6000611701565b565b6060610c56610c1e6117c7565b83610c276117ec565b610c2f61182e565b604051602001610c429493929190612e5c565b604051602081830303815290604052611870565b604051602001610c669190612ef1565b6040516020818303038152906040529050919050565b600b60019054906101000a900473ffffffffffffffffffffffffffffffffffffffff1681565b6000600760009054906101000a900473ffffffffffffffffffffffffffffffffffffffff16905090565b606060018054610cdb90612a5d565b80601f0160208091040260200160405190810160405280929190818152602001828054610d0790612a5d565b8015610d545780601f10610d2957610100808354040283529160200191610d54565b820191906000526020600020905b815481529060010190602001808311610d3757829003601f168201915b5050505050905090565b610d70610d696112c7565b83836119e8565b5050565b600c6020528060005260406000206000915090505481565b610d9d610d976112c7565b83611388565b610ddc576040517f08c379a0000000000000000000000000000000000000000000000000000000008152600401610dd390612c24565b60405180910390fd5b610de884848484611b54565b50505050565b6060610df98261127c565b6000600660008481526020019081526020016000208054610e1990612a5d565b80601f0160208091040260200160405190810160405280929190818152602001828054610e4590612a5d565b8015610e925780601f10610e6757610100808354040283529160200191610e92565b820191906000526020600020905b815481529060010190602001808311610e7557829003601f168201915b505050505090506000610ea3611bb0565b90506000815103610eb8578192505050610efb565b600082511115610eed578082604051602001610ed5929190612f13565b60405160208183030381529060405292505050610efb565b610ef684611bc7565b925050505b919050565b600a5481565b600b60009054906101000a900460ff16610f55576040517f08c379a0000000000000000000000000000000000000000000000000000000008152600401610f4c90612f83565b60405180910390fd5b600a600c60003373ffffffffffffffffffffffffffffffffffffffff1673ffffffffffffffffffffffffffffffffffffffff1681526020019081526020016000205410610fd7576040517f08c379a0000000000000000000000000000000000000000000000000000000008152600401610fce90612fef565b60405180910390fd5b600854341461101b576040517f08c379a00000000000000000000000000000000000000000000000000000000081526004016110129061305b565b60405180910390fd5b600954600a5411611061576040517f08c379a0000000000000000000000000000000000000000000000000000000008152600401611058906130c7565b60405180910390fd5b600c60003373ffffffffffffffffffffffffffffffffffffffff1673ffffffffffffffffffffffffffffffffffffffff16815260200190815260200160002060008154809291906110b190613116565b9190505550600960008154809291906110c990613116565b919050555060006110d982610c11565b9050600060095490506110ec3382611c2f565b6110f68183611c4d565b505050565b6000600560008473ffffffffffffffffffffffffffffffffffffffff1673ffffffffffffffffffffffffffffffffffffffff16815260200190815260200160002060008373ffffffffffffffffffffffffffffffffffffffff1673ffffffffffffffffffffffffffffffffffffffff16815260200190815260200160002060009054906101000a900460ff16905092915050565b611197611683565b600073ffffffffffffffffffffffffffffffffffffffff168173ffffffffffffffffffffffffffffffffffffffff1603611206576040517f08c379a00000000000000000000000000000000000000000000000000000000081526004016111fd906131d0565b60405180910390fd5b61120f81611701565b50565b60007f01ffc9a7000000000000000000000000000000000000000000000000000000007bffffffffffffffffffffffffffffffffffffffffffffffffffffffff1916827bffffffffffffffffffffffffffffffffffffffffffffffffffffffff1916149050919050565b61128581611cc1565b6112c4576040517f08c379a00000000000000000000000000000000000000000000000000000000081526004016112bb90612cd6565b60405180910390fd5b50565b600033905090565b816004600083815260200190815260200160002060006101000a81548173ffffffffffffffffffffffffffffffffffffffff021916908373ffffffffffffffffffffffffffffffffffffffff160217905550808273ffffffffffffffffffffffffffffffffffffffff1661134283610a7d565b73ffffffffffffffffffffffffffffffffffffffff167f8c5be1e5ebec7d5bd14f71427d1e84f3dd0314c0f7b2291e5b200ac8c7c3b92560405160405180910390a45050565b60008061139483610a7d565b90508073ffffffffffffffffffffffffffffffffffffffff168473ffffffffffffffffffffffffffffffffffffffff1614806113d657506113d581856110fb565b5b8061141457508373ffffffffffffffffffffffffffffffffffffffff166113fc846107da565b73ffffffffffffffffffffffffffffffffffffffff16145b91505092915050565b8273ffffffffffffffffffffffffffffffffffffffff1661143d82610a7d565b73ffffffffffffffffffffffffffffffffffffffff1614611493576040517f08c379a000000000000000000000000000000000000000000000000000000000815260040161148a90613262565b60405180910390fd5b600073ffffffffffffffffffffffffffffffffffffffff168273ffffffffffffffffffffffffffffffffffffffff1603611502576040517f08c379a00000000000000000000000000000000000000000000000000000000081526004016114f9906132f4565b60405180910390fd5b61150d838383611d2d565b6115186000826112cf565b6001600360008573ffffffffffffffffffffffffffffffffffffffff1673ffffffffffffffffffffffffffffffffffffffff16815260200190815260200160002060008282546115689190613314565b925050819055506001600360008473ffffffffffffffffffffffffffffffffffffffff1673ffffffffffffffffffffffffffffffffffffffff16815260200190815260200160002060008282546115bf9190613348565b92505081905550816002600083815260200190815260200160002060006101000a81548173ffffffffffffffffffffffffffffffffffffffff021916908373ffffffffffffffffffffffffffffffffffffffff160217905550808273ffffffffffffffffffffffffffffffffffffffff168473ffffffffffffffffffffffffffffffffffffffff167fddf252ad1be2c89b69c2b068fc378daa952ba7f163c4a11628f55a4df523b3ef60405160405180910390a461167e838383611d32565b505050565b61168b6112c7565b73ffffffffffffffffffffffffffffffffffffffff166116a9610ca2565b73ffffffffffffffffffffffffffffffffffffffff16146116ff576040517f08c379a00000000000000000000000000000000000000000000000000000000081526004016116f6906133ea565b60405180910390fd5b565b6000600760009054906101000a900473ffffffffffffffffffffffffffffffffffffffff16905081600760006101000a81548173ffffffffffffffffffffffffffffffffffffffff021916908373ffffffffffffffffffffffffffffffffffffffff1602179055508173ffffffffffffffffffffffffffffffffffffffff168173ffffffffffffffffffffffffffffffffffffffff167f8be0079c531659141344cd1fd0a4f28419497f9722a3daafe3b4186f6b6457e060405160405180910390a35050565b6060806040518060800160405280604f81526020016138b0604f913990508091505090565b6060806040518060400160405280601181526020017f273e3c2f696d6167653e203c2f7376673e00000000000000000000000000000081525090508091505090565b6060806040518060400160405280600281526020017f227d00000000000000000000000000000000000000000000000000000000000081525090508091505090565b60606000825103611892576040518060200160405280600081525090506119e3565b600060405180606001604052806040815260200161387060409139905060006003600285516118c19190613348565b6118cb9190613439565b60046118d7919061346a565b905060006020826118e89190613348565b67ffffffffffffffff811115611901576119006126da565b5b6040519080825280601f01601f1916602001820160405280156119335781602001600182028036833780820191505090505b509050818152600183018586518101602084015b818310156119a2576003830192508251603f8160121c168501518253600182019150603f81600c1c168501518253600182019150603f8160061c168501518253600182019150603f8116850151825360018201915050611947565b6003895106600181146119bc57600281146119cc576119d7565b613d3d60f01b60028303526119d7565b603d60f81b60018303525b50505050508093505050505b919050565b8173ffffffffffffffffffffffffffffffffffffffff168373ffffffffffffffffffffffffffffffffffffffff1603611a56576040517f08c379a0000000000000000000000000000000000000000000000000000000008152600401611a4d90613510565b60405180910390fd5b80600560008573ffffffffffffffffffffffffffffffffffffffff1673ffffffffffffffffffffffffffffffffffffffff16815260200190815260200160002060008473ffffffffffffffffffffffffffffffffffffffff1673ffffffffffffffffffffffffffffffffffffffff16815260200190815260200160002060006101000a81548160ff0219169083151502179055508173ffffffffffffffffffffffffffffffffffffffff168373ffffffffffffffffffffffffffffffffffffffff167f17307eab39ab6107e8899845ad3d59bd9653f200f220920489ca2b5937696c3183604051611b4791906123cc565b60405180910390a3505050565b611b5f84848461141d565b611b6b84848484611d37565b611baa576040517f08c379a0000000000000000000000000000000000000000000000000000000008152600401611ba1906135a2565b60405180910390fd5b50505050565b606060405180602001604052806000815250905090565b6060611bd28261127c565b6000611bdc611bb0565b90506000815111611bfc5760405180602001604052806000815250611c27565b80611c0684611ebe565b604051602001611c17929190612f13565b6040516020818303038152906040525b915050919050565b611c4982826040518060200160405280600081525061201e565b5050565b611c5682611cc1565b611c95576040517f08c379a0000000000000000000000000000000000000000000000000000000008152600401611c8c90613634565b60405180910390fd5b80600660008481526020019081526020016000209080519060200190611cbc929190612275565b505050565b60008073ffffffffffffffffffffffffffffffffffffffff166002600084815260200190815260200160002060009054906101000a900473ffffffffffffffffffffffffffffffffffffffff1673ffffffffffffffffffffffffffffffffffffffff1614159050919050565b505050565b505050565b6000611d588473ffffffffffffffffffffffffffffffffffffffff16612079565b15611eb1578373ffffffffffffffffffffffffffffffffffffffff1663150b7a02611d816112c7565b8786866040518563ffffffff1660e01b8152600401611da394939291906136a9565b6020604051808303816000875af1925050508015611ddf57506040513d601f19601f82011682018060405250810190611ddc919061370a565b60015b611e61573d8060008114611e0f576040519150601f19603f3d011682016040523d82523d6000602084013e611e14565b606091505b506000815103611e59576040517f08c379a0000000000000000000000000000000000000000000000000000000008152600401611e50906135a2565b60405180910390fd5b805181602001fd5b63150b7a0260e01b7bffffffffffffffffffffffffffffffffffffffffffffffffffffffff1916817bffffffffffffffffffffffffffffffffffffffffffffffffffffffff191614915050611eb6565b600190505b949350505050565b606060008203611f05576040518060400160405280600181526020017f30000000000000000000000000000000000000000000000000000000000000008152509050612019565b600082905060005b60008214611f37578080611f2090613116565b915050600a82611f309190613439565b9150611f0d565b60008167ffffffffffffffff811115611f5357611f526126da565b5b6040519080825280601f01601f191660200182016040528015611f855781602001600182028036833780820191505090505b5090505b6000851461201257600182611f9e9190613314565b9150600a85611fad9190613737565b6030611fb99190613348565b60f81b818381518110611fcf57611fce613768565b5b60200101907effffffffffffffffffffffffffffffffffffffffffffffffffffffffffffff1916908160001a905350600a8561200b9190613439565b9450611f89565b8093505050505b919050565b612028838361209c565b6120356000848484611d37565b612074576040517f08c379a000000000000000000000000000000000000000000000000000000000815260040161206b906135a2565b60405180910390fd5b505050565b6000808273ffffffffffffffffffffffffffffffffffffffff163b119050919050565b600073ffffffffffffffffffffffffffffffffffffffff168273ffffffffffffffffffffffffffffffffffffffff160361210b576040517f08c379a0000000000000000000000000000000000000000000000000000000008152600401612102906137e3565b60405180910390fd5b61211481611cc1565b15612154576040517f08c379a000000000000000000000000000000000000000000000000000000000815260040161214b9061384f565b60405180910390fd5b61216060008383611d2d565b6001600360008473ffffffffffffffffffffffffffffffffffffffff1673ffffffffffffffffffffffffffffffffffffffff16815260200190815260200160002060008282546121b09190613348565b92505081905550816002600083815260200190815260200160002060006101000a81548173ffffffffffffffffffffffffffffffffffffffff021916908373ffffffffffffffffffffffffffffffffffffffff160217905550808273ffffffffffffffffffffffffffffffffffffffff16600073ffffffffffffffffffffffffffffffffffffffff167fddf252ad1be2c89b69c2b068fc378daa952ba7f163c4a11628f55a4df523b3ef60405160405180910390a461227160008383611d32565b5050565b82805461228190612a5d565b90600052602060002090601f0160209004810192826122a357600085556122ea565b82601f106122bc57805160ff19168380011785556122ea565b828001600101855582156122ea579182015b828111156122e95782518255916020019190600101906122ce565b5b5090506122f791906122fb565b5090565b5b808211156123145760008160009055506001016122fc565b5090565b6000604051905090565b600080fd5b600080fd5b60007fffffffff0000000000000000000000000000000000000000000000000000000082169050919050565b6123618161232c565b811461236c57600080fd5b50565b60008135905061237e81612358565b92915050565b60006020828403121561239a57612399612322565b5b60006123a88482850161236f565b91505092915050565b60008115159050919050565b6123c6816123b1565b82525050565b60006020820190506123e160008301846123bd565b92915050565b600081519050919050565b600082825260208201905092915050565b60005b83811015612421578082015181840152602081019050612406565b83811115612430576000848401525b50505050565b6000601f19601f8301169050919050565b6000612452826123e7565b61245c81856123f2565b935061246c818560208601612403565b61247581612436565b840191505092915050565b6000602082019050818103600083015261249a8184612447565b905092915050565b6000819050919050565b6124b5816124a2565b81146124c057600080fd5b50565b6000813590506124d2816124ac565b92915050565b6000602082840312156124ee576124ed612322565b5b60006124fc848285016124c3565b91505092915050565b600073ffffffffffffffffffffffffffffffffffffffff82169050919050565b600061253082612505565b9050919050565b61254081612525565b82525050565b600060208201905061255b6000830184612537565b92915050565b61256a81612525565b811461257557600080fd5b50565b60008135905061258781612561565b92915050565b600080604083850312156125a4576125a3612322565b5b60006125b285828601612578565b92505060206125c3858286016124c3565b9150509250929050565b6125d6816124a2565b82525050565b60006020820190506125f160008301846125cd565b92915050565b6000806000606084860312156126105761260f612322565b5b600061261e86828701612578565b935050602061262f86828701612578565b9250506040612640868287016124c3565b9150509250925092565b612653816123b1565b811461265e57600080fd5b50565b6000813590506126708161264a565b92915050565b60006020828403121561268c5761268b612322565b5b600061269a84828501612661565b91505092915050565b6000602082840312156126b9576126b8612322565b5b60006126c784828501612578565b91505092915050565b600080fd5b600080fd5b7f4e487b7100000000000000000000000000000000000000000000000000000000600052604160045260246000fd5b61271282612436565b810181811067ffffffffffffffff82111715612731576127306126da565b5b80604052505050565b6000612744612318565b90506127508282612709565b919050565b600067ffffffffffffffff8211156127705761276f6126da565b5b61277982612436565b9050602081019050919050565b82818337600083830152505050565b60006127a86127a384612755565b61273a565b9050828152602081018484840111156127c4576127c36126d5565b5b6127cf848285612786565b509392505050565b600082601f8301126127ec576127eb6126d0565b5b81356127fc848260208601612795565b91505092915050565b60006020828403121561281b5761281a612322565b5b600082013567ffffffffffffffff81111561283957612838612327565b5b612845848285016127d7565b91505092915050565b600061285982612505565b9050919050565b6128698161284e565b82525050565b60006020820190506128846000830184612860565b92915050565b600080604083850312156128a1576128a0612322565b5b60006128af85828601612578565b92505060206128c085828601612661565b9150509250929050565b600067ffffffffffffffff8211156128e5576128e46126da565b5b6128ee82612436565b9050602081019050919050565b600061290e612909846128ca565b61273a565b90508281526020810184848401111561292a576129296126d5565b5b612935848285612786565b509392505050565b600082601f830112612952576129516126d0565b5b81356129628482602086016128fb565b91505092915050565b6000806000806080858703121561298557612984612322565b5b600061299387828801612578565b94505060206129a487828801612578565b93505060406129b5878288016124c3565b925050606085013567ffffffffffffffff8111156129d6576129d5612327565b5b6129e28782880161293d565b91505092959194509250565b60008060408385031215612a0557612a04612322565b5b6000612a1385828601612578565b9250506020612a2485828601612578565b9150509250929050565b7f4e487b7100000000000000000000000000000000000000000000000000000000600052602260045260246000fd5b60006002820490506001821680612a7557607f821691505b602082108103612a8857612a87612a2e565b5b50919050565b7f4552433732313a20617070726f76616c20746f2063757272656e74206f776e6560008201527f7200000000000000000000000000000000000000000000000000000000000000602082015250565b6000612aea6021836123f2565b9150612af582612a8e565b604082019050919050565b60006020820190508181036000830152612b1981612add565b9050919050565b7f4552433732313a20617070726f76652063616c6c6572206973206e6f7420746f60008201527f6b656e206f776e6572206e6f7220617070726f76656420666f7220616c6c0000602082015250565b6000612b7c603e836123f2565b9150612b8782612b20565b604082019050919050565b60006020820190508181036000830152612bab81612b6f565b9050919050565b7f4552433732313a2063616c6c6572206973206e6f7420746f6b656e206f776e6560008201527f72206e6f7220617070726f766564000000000000000000000000000000000000602082015250565b6000612c0e602e836123f2565b9150612c1982612bb2565b604082019050919050565b60006020820190508181036000830152612c3d81612c01565b9050919050565b600081905092915050565b50565b6000612c5f600083612c44565b9150612c6a82612c4f565b600082019050919050565b6000612c8082612c52565b9150819050919050565b7f4552433732313a20696e76616c696420746f6b656e2049440000000000000000600082015250565b6000612cc06018836123f2565b9150612ccb82612c8a565b602082019050919050565b60006020820190508181036000830152612cef81612cb3565b9050919050565b7f4552433732313a2061646472657373207a65726f206973206e6f74206120766160008201527f6c6964206f776e65720000000000000000000000000000000000000000000000602082015250565b6000612d526029836123f2565b9150612d5d82612cf6565b604082019050919050565b60006020820190508181036000830152612d8181612d45565b9050919050565b600081905092915050565b7f7b226e616d65223a20224c434d204f4e2d434841494e4544222c20226465736360008201527f72697074696f6e223a2022412073696d706c6520504e47206261736564206f6e60208201527f2d636861696e204e4654222c2022696d6167655f64617461223a220000000000604082015250565b6000612e15605b83612d88565b9150612e2082612d93565b605b82019050919050565b6000612e36826123e7565b612e408185612d88565b9350612e50818560208601612403565b80840191505092915050565b6000612e6782612e08565b9150612e738287612e2b565b9150612e7f8286612e2b565b9150612e8b8285612e2b565b9150612e978284612e2b565b915081905095945050505050565b7f646174613a6170706c69636174696f6e2f6a736f6e3b6261736536342c000000600082015250565b6000612edb601d83612d88565b9150612ee682612ea5565b601d82019050919050565b6000612efc82612ece565b9150612f088284612e2b565b915081905092915050565b6000612f1f8285612e2b565b9150612f2b8284612e2b565b91508190509392505050565b7f6f776e65722064697361626c6564206d696e74696e6721000000000000000000600082015250565b6000612f6d6017836123f2565b9150612f7882612f37565b602082019050919050565b60006020820190508181036000830152612f9c81612f60565b9050919050565b7f65786365656473206d6178207065722077616c6c657400000000000000000000600082015250565b6000612fd96016836123f2565b9150612fe482612fa3565b602082019050919050565b6000602082019050818103600083015261300881612fcc565b9050919050565b7f77726f6e672076616c756520666f72206d696e74696e67207072696365000000600082015250565b6000613045601d836123f2565b91506130508261300f565b602082019050919050565b6000602082019050818103600083015261307481613038565b9050919050565b7f636f6c6c656374696f6e20736f6c64206f757400000000000000000000000000600082015250565b60006130b16013836123f2565b91506130bc8261307b565b602082019050919050565b600060208201905081810360008301526130e0816130a4565b9050919050565b7f4e487b7100000000000000000000000000000000000000000000000000000000600052601160045260246000fd5b6000613121826124a2565b91507fffffffffffffffffffffffffffffffffffffffffffffffffffffffffffffffff8203613153576131526130e7565b5b600182019050919050565b7f4f776e61626c653a206e6577206f776e657220697320746865207a65726f206160008201527f6464726573730000000000000000000000000000000000000000000000000000602082015250565b60006131ba6026836123f2565b91506131c58261315e565b604082019050919050565b600060208201905081810360008301526131e9816131ad565b9050919050565b7f4552433732313a207472616e736665722066726f6d20696e636f72726563742060008201527f6f776e6572000000000000000000000000000000000000000000000000000000602082015250565b600061324c6025836123f2565b9150613257826131f0565b604082019050919050565b6000602082019050818103600083015261327b8161323f565b9050919050565b7f4552433732313a207472616e7366657220746f20746865207a65726f2061646460008201527f7265737300000000000000000000000000000000000000000000000000000000602082015250565b60006132de6024836123f2565b91506132e982613282565b604082019050919050565b6000602082019050818103600083015261330d816132d1565b9050919050565b600061331f826124a2565b915061332a836124a2565b92508282101561333d5761333c6130e7565b5b828203905092915050565b6000613353826124a2565b915061335e836124a2565b9250827fffffffffffffffffffffffffffffffffffffffffffffffffffffffffffffffff03821115613393576133926130e7565b5b828201905092915050565b7f4f776e61626c653a2063616c6c6572206973206e6f7420746865206f776e6572600082015250565b60006133d46020836123f2565b91506133df8261339e565b602082019050919050565b60006020820190508181036000830152613403816133c7565b9050919050565b7f4e487b7100000000000000000000000000000000000000000000000000000000600052601260045260246000fd5b6000613444826124a2565b915061344f836124a2565b92508261345f5761345e61340a565b5b828204905092915050565b6000613475826124a2565b9150613480836124a2565b9250817fffffffffffffffffffffffffffffffffffffffffffffffffffffffffffffffff04831182151516156134b9576134b86130e7565b5b828202905092915050565b7f4552433732313a20617070726f766520746f2063616c6c657200000000000000600082015250565b60006134fa6019836123f2565b9150613505826134c4565b602082019050919050565b60006020820190508181036000830152613529816134ed565b9050919050565b7f4552433732313a207472616e7366657220746f206e6f6e20455243373231526560008201527f63656976657220696d706c656d656e7465720000000000000000000000000000602082015250565b600061358c6032836123f2565b915061359782613530565b604082019050919050565b600060208201905081810360008301526135bb8161357f565b9050919050565b7f45524337323155524953746f726167653a2055524920736574206f66206e6f6e60008201527f6578697374656e7420746f6b656e000000000000000000000000000000000000602082015250565b600061361e602e836123f2565b9150613629826135c2565b604082019050919050565b6000602082019050818103600083015261364d81613611565b9050919050565b600081519050919050565b600082825260208201905092915050565b600061367b82613654565b613685818561365f565b9350613695818560208601612403565b61369e81612436565b840191505092915050565b60006080820190506136be6000830187612537565b6136cb6020830186612537565b6136d860408301856125cd565b81810360608301526136ea8184613670565b905095945050505050565b60008151905061370481612358565b92915050565b6000602082840312156137205761371f612322565b5b600061372e848285016136f5565b91505092915050565b6000613742826124a2565b915061374d836124a2565b92508261375d5761375c61340a565b5b828206905092915050565b7f4e487b7100000000000000000000000000000000000000000000000000000000600052603260045260246000fd5b7f4552433732313a206d696e7420746f20746865207a65726f2061646472657373600082015250565b60006137cd6020836123f2565b91506137d882613797565b602082019050919050565b600060208201905081810360008301526137fc816137c0565b9050919050565b7f4552433732313a20746f6b656e20616c7265616479206d696e74656400000000600082015250565b6000613839601c836123f2565b915061384482613803565b602082019050919050565b600060208201905081810360008301526138688161382c565b905091905056fe4142434445464748494a4b4c4d4e4f505152535455565758595a6162636465666768696a6b6c6d6e6f707172737475767778797a303132333435363738392b2f3c7376672077696474683d2732303027206865696768743d273230302720786d6c6e733d27687474703a2f2f7777772e77332e6f72672f323030302f737667273e203c696d61676520687265663d27a2646970667358221220dceb579b5affa6794bed2f892126d3fc68c9778be7e436cba5fdae5580d3834264736f6c634300080e0033",
  "immutableReferences": {},
  "source": "// SPDX-License-Identifier: MIT\npragma solidity >=0.4.22 <0.9.0;\n\n//import \"@openzeppelin/contracts/token/ERC721/extensions/ERC721URIStorage.sol\"\n\nimport \"../node_modules/@openzeppelin/contracts/token/ERC721/extensions/ERC721URIStorage.sol\";\nimport \"../node_modules/@openzeppelin/contracts/access/Ownable.sol\";\nimport \"../node_modules/@openzeppelin/contracts/utils/Counters.sol\";\n\nlibrary Base64 {\n    string internal constant TABLE_ENCODE = 'ABCDEFGHIJKLMNOPQRSTUVWXYZabcdefghijklmnopqrstuvwxyz0123456789+/';\n    bytes  internal constant TABLE_DECODE = hex\"0000000000000000000000000000000000000000000000000000000000000000\"\n                                            hex\"00000000000000000000003e0000003f3435363738393a3b3c3d000000000000\"\n                                            hex\"00000102030405060708090a0b0c0d0e0f101112131415161718190000000000\"\n                                            hex\"001a1b1c1d1e1f202122232425262728292a2b2c2d2e2f303132330000000000\";\n\n    function encode(bytes memory data) internal pure returns (string memory) {\n        if (data.length == 0) return '';\n\n        // load the table into memory\n        string memory table = TABLE_ENCODE;\n\n        // multiply by 4/3 rounded up\n        uint256 encodedLen = 4 * ((data.length + 2) / 3);\n\n        // add some extra buffer at the end required for the writing\n        string memory result = new string(encodedLen + 32);\n\n        assembly {\n            // set the actual output length\n            mstore(result, encodedLen)\n\n            // prepare the lookup table\n            let tablePtr := add(table, 1)\n\n            // input ptr\n            let dataPtr := data\n            let endPtr := add(dataPtr, mload(data))\n\n            // result ptr, jump over length\n            let resultPtr := add(result, 32)\n\n            // run over the input, 3 bytes at a time\n            for {} lt(dataPtr, endPtr) {}\n            {\n                // read 3 bytes\n                dataPtr := add(dataPtr, 3)\n                let input := mload(dataPtr)\n\n                // write 4 characters\n                mstore8(resultPtr, mload(add(tablePtr, and(shr(18, input), 0x3F))))\n                resultPtr := add(resultPtr, 1)\n                mstore8(resultPtr, mload(add(tablePtr, and(shr(12, input), 0x3F))))\n                resultPtr := add(resultPtr, 1)\n                mstore8(resultPtr, mload(add(tablePtr, and(shr( 6, input), 0x3F))))\n                resultPtr := add(resultPtr, 1)\n                mstore8(resultPtr, mload(add(tablePtr, and(        input,  0x3F))))\n                resultPtr := add(resultPtr, 1)\n            }\n\n            // padding with '='\n            switch mod(mload(data), 3)\n            case 1 { mstore(sub(resultPtr, 2), shl(240, 0x3d3d)) }\n            case 2 { mstore(sub(resultPtr, 1), shl(248, 0x3d)) }\n        }\n\n        return result;\n    }\n\n    function decode(string memory _data) internal pure returns (bytes memory) {\n        bytes memory data = bytes(_data);\n\n        if (data.length == 0) return new bytes(0);\n        require(data.length % 4 == 0, \"invalid base64 decoder input\");\n\n        // load the table into memory\n        bytes memory table = TABLE_DECODE;\n\n        // every 4 characters represent 3 bytes\n        uint256 decodedLen = (data.length / 4) * 3;\n\n        // add some extra buffer at the end required for the writing\n        bytes memory result = new bytes(decodedLen + 32);\n\n        assembly {\n            // padding with '='\n            let lastBytes := mload(add(data, mload(data)))\n            if eq(and(lastBytes, 0xFF), 0x3d) {\n                decodedLen := sub(decodedLen, 1)\n                if eq(and(lastBytes, 0xFFFF), 0x3d3d) {\n                    decodedLen := sub(decodedLen, 1)\n                }\n            }\n\n            // set the actual output length\n            mstore(result, decodedLen)\n\n            // prepare the lookup table\n            let tablePtr := add(table, 1)\n\n            // input ptr\n            let dataPtr := data\n            let endPtr := add(dataPtr, mload(data))\n\n            // result ptr, jump over length\n            let resultPtr := add(result, 32)\n\n            // run over the input, 4 characters at a time\n            for {} lt(dataPtr, endPtr) {}\n            {\n               // read 4 characters\n               dataPtr := add(dataPtr, 4)\n               let input := mload(dataPtr)\n\n               // write 3 bytes\n               let output := add(\n                   add(\n                       shl(18, and(mload(add(tablePtr, and(shr(24, input), 0xFF))), 0xFF)),\n                       shl(12, and(mload(add(tablePtr, and(shr(16, input), 0xFF))), 0xFF))),\n                   add(\n                       shl( 6, and(mload(add(tablePtr, and(shr( 8, input), 0xFF))), 0xFF)),\n                               and(mload(add(tablePtr, and(        input , 0xFF))), 0xFF)\n                    )\n                )\n                mstore(resultPtr, shl(232, output))\n                resultPtr := add(resultPtr, 3)\n            }\n        }\n\n        return result;\n    }\n}\n\ncontract OnChainNFT is ERC721URIStorage, Ownable {\n\n    uint256 public mintPrice;\n    uint256 public totalSupply;\n    uint256 public maxSupply;\n    bool public isMintEnabled=true;\n\n    address payable public withdrawWallet;\n    mapping(address => uint256) public mintedWallets;\n\n    constructor() payable ERC721(\"OnChainPixelart\", \"ONP\") {\n        mintPrice = 0.001 ether;\n        totalSupply = 0;\n        maxSupply = 999;\n    }\n\n    function toggleIsMintEnabled(bool isMintEnabled_) external onlyOwner {\n        isMintEnabled = isMintEnabled_;\n    }\n\n    function setMaxSupply(uint256 maxSupply_) external onlyOwner {\n        maxSupply = maxSupply_;\n    }\n\n        function getSvg1() private pure returns (string memory) {\n        string memory svg1;\n        svg1 = \"<svg width='200' height='200' xmlns='http://www.w3.org/2000/svg'> <image href='\";\n        return svg1;\n    }    \n\n        function getSvg2() private pure returns (string memory) {\n        string memory svg2;\n        svg2 = \"'></image> </svg>\";\n        return svg2;\n    } \n\n    function addCurlyBrace() private pure returns (string memory){\n        string memory curlyBrace;\n        curlyBrace = '\"}';\n        return curlyBrace;\n    }\n\n    /* Generates a tokenURI using Base64 string as the image */\n    function formatTokenURI(string memory imageURI)\n        public\n        pure\n        returns (string memory)\n    {\n        return\n            string(\n                abi.encodePacked(\"data:application/json;base64,\",\n                            Base64.encode(\n                      bytes(string(\n                        abi.encodePacked(\n                            '{\"name\": \"LCM ON-CHAINED\", \"description\": \"A simple PNG based on-chain NFT\", \"image_data\":\"',\n                            getSvg1(),\n                            imageURI,\n                            getSvg2(),\n                            addCurlyBrace()\n                          \n                        ))\n                    )\n                       )\n                )\n            );\n    }\n        function mint(string memory imageURI) external payable {\n\n            require(isMintEnabled, \"owner disabled minting!\");\n            require(mintedWallets[msg.sender]<10, 'exceeds max per wallet');\n            require(msg.value == mintPrice,'wrong value for minting price');\n            require(maxSupply> totalSupply,'collection sold out');\n\n            mintedWallets[msg.sender]++;\n            totalSupply++;\n\n            string memory tokenURI = formatTokenURI(imageURI); \n            uint256 tokenId=totalSupply;\n            \n            _safeMint(msg.sender, tokenId);\n            _setTokenURI(tokenId, tokenURI);\n        }\n\n  function withdraw() public payable onlyOwner {\n    (bool os, ) = payable(owner()).call{value: address(this).balance}(\"\");\n    require(os);\n  }\n\n   \n}\n",
  "sourcePath": "/home/brate/Desktop/react_web3_pixelart_creator/truffle/contracts/OnChainNFT.sol",
  "compiler": {
    "name": "solc",
    "version": "0.8.14+commit.80d49f37.Emscripten.clang"
  },
  "schemaVersion": "3.4.10",
  "updatedAt": "2022-09-19T22:32:09.729Z",
  "networkType": "ethereum",
  "devdoc": {
    "kind": "dev",
    "methods": {
      "approve(address,uint256)": {
        "details": "See {IERC721-approve}."
      },
      "balanceOf(address)": {
        "details": "See {IERC721-balanceOf}."
      },
      "getApproved(uint256)": {
        "details": "See {IERC721-getApproved}."
      },
      "isApprovedForAll(address,address)": {
        "details": "See {IERC721-isApprovedForAll}."
      },
      "name()": {
        "details": "See {IERC721Metadata-name}."
      },
      "owner()": {
        "details": "Returns the address of the current owner."
      },
      "ownerOf(uint256)": {
        "details": "See {IERC721-ownerOf}."
      },
      "renounceOwnership()": {
        "details": "Leaves the contract without owner. It will not be possible to call `onlyOwner` functions anymore. Can only be called by the current owner. NOTE: Renouncing ownership will leave the contract without an owner, thereby removing any functionality that is only available to the owner."
      },
      "safeTransferFrom(address,address,uint256)": {
        "details": "See {IERC721-safeTransferFrom}."
      },
      "safeTransferFrom(address,address,uint256,bytes)": {
        "details": "See {IERC721-safeTransferFrom}."
      },
      "setApprovalForAll(address,bool)": {
        "details": "See {IERC721-setApprovalForAll}."
      },
      "supportsInterface(bytes4)": {
        "details": "See {IERC165-supportsInterface}."
      },
      "symbol()": {
        "details": "See {IERC721Metadata-symbol}."
      },
      "tokenURI(uint256)": {
        "details": "See {IERC721Metadata-tokenURI}."
      },
      "transferFrom(address,address,uint256)": {
        "details": "See {IERC721-transferFrom}."
      },
      "transferOwnership(address)": {
        "details": "Transfers ownership of the contract to a new account (`newOwner`). Can only be called by the current owner."
      }
    },
    "version": 1
  },
  "userdoc": {
    "kind": "user",
    "methods": {},
    "version": 1
  }
}