{
  "contractName": "OnChainNFT",
  "abi": [
    {
      "inputs": [],
      "stateMutability": "payable",
      "type": "constructor",
      "payable": true
    },
    {
      "anonymous": false,
      "inputs": [
        {
          "indexed": true,
          "internalType": "address",
          "name": "owner",
          "type": "address"
        },
        {
          "indexed": true,
          "internalType": "address",
          "name": "approved",
          "type": "address"
        },
        {
          "indexed": true,
          "internalType": "uint256",
          "name": "tokenId",
          "type": "uint256"
        }
      ],
      "name": "Approval",
      "type": "event"
    },
    {
      "anonymous": false,
      "inputs": [
        {
          "indexed": true,
          "internalType": "address",
          "name": "owner",
          "type": "address"
        },
        {
          "indexed": true,
          "internalType": "address",
          "name": "operator",
          "type": "address"
        },
        {
          "indexed": false,
          "internalType": "bool",
          "name": "approved",
          "type": "bool"
        }
      ],
      "name": "ApprovalForAll",
      "type": "event"
    },
    {
      "anonymous": false,
      "inputs": [
        {
          "indexed": true,
          "internalType": "address",
          "name": "previousOwner",
          "type": "address"
        },
        {
          "indexed": true,
          "internalType": "address",
          "name": "newOwner",
          "type": "address"
        }
      ],
      "name": "OwnershipTransferred",
      "type": "event"
    },
    {
      "anonymous": false,
      "inputs": [
        {
          "indexed": true,
          "internalType": "address",
          "name": "from",
          "type": "address"
        },
        {
          "indexed": true,
          "internalType": "address",
          "name": "to",
          "type": "address"
        },
        {
          "indexed": true,
          "internalType": "uint256",
          "name": "tokenId",
          "type": "uint256"
        }
      ],
      "name": "Transfer",
      "type": "event"
    },
    {
      "inputs": [
        {
          "internalType": "address",
          "name": "to",
          "type": "address"
        },
        {
          "internalType": "uint256",
          "name": "tokenId",
          "type": "uint256"
        }
      ],
      "name": "approve",
      "outputs": [],
      "stateMutability": "nonpayable",
      "type": "function"
    },
    {
      "inputs": [
        {
          "internalType": "address",
          "name": "owner",
          "type": "address"
        }
      ],
      "name": "balanceOf",
      "outputs": [
        {
          "internalType": "uint256",
          "name": "",
          "type": "uint256"
        }
      ],
      "stateMutability": "view",
      "type": "function",
      "constant": true
    },
    {
      "inputs": [
        {
          "internalType": "uint256",
          "name": "tokenId",
          "type": "uint256"
        }
      ],
      "name": "getApproved",
      "outputs": [
        {
          "internalType": "address",
          "name": "",
          "type": "address"
        }
      ],
      "stateMutability": "view",
      "type": "function",
      "constant": true
    },
    {
      "inputs": [
        {
          "internalType": "address",
          "name": "owner",
          "type": "address"
        },
        {
          "internalType": "address",
          "name": "operator",
          "type": "address"
        }
      ],
      "name": "isApprovedForAll",
      "outputs": [
        {
          "internalType": "bool",
          "name": "",
          "type": "bool"
        }
      ],
      "stateMutability": "view",
      "type": "function",
      "constant": true
    },
    {
      "inputs": [],
      "name": "isMintEnabled",
      "outputs": [
        {
          "internalType": "bool",
          "name": "",
          "type": "bool"
        }
      ],
      "stateMutability": "view",
      "type": "function",
      "constant": true
    },
    {
      "inputs": [],
      "name": "maxSupply",
      "outputs": [
        {
          "internalType": "uint256",
          "name": "",
          "type": "uint256"
        }
      ],
      "stateMutability": "view",
      "type": "function",
      "constant": true
    },
    {
      "inputs": [],
      "name": "mintPrice",
      "outputs": [
        {
          "internalType": "uint256",
          "name": "",
          "type": "uint256"
        }
      ],
      "stateMutability": "view",
      "type": "function",
      "constant": true
    },
    {
      "inputs": [
        {
          "internalType": "address",
          "name": "",
          "type": "address"
        }
      ],
      "name": "mintedWallets",
      "outputs": [
        {
          "internalType": "uint256",
          "name": "",
          "type": "uint256"
        }
      ],
      "stateMutability": "view",
      "type": "function",
      "constant": true
    },
    {
      "inputs": [],
      "name": "name",
      "outputs": [
        {
          "internalType": "string",
          "name": "",
          "type": "string"
        }
      ],
      "stateMutability": "view",
      "type": "function",
      "constant": true
    },
    {
      "inputs": [],
      "name": "owner",
      "outputs": [
        {
          "internalType": "address",
          "name": "",
          "type": "address"
        }
      ],
      "stateMutability": "view",
      "type": "function",
      "constant": true
    },
    {
      "inputs": [
        {
          "internalType": "uint256",
          "name": "tokenId",
          "type": "uint256"
        }
      ],
      "name": "ownerOf",
      "outputs": [
        {
          "internalType": "address",
          "name": "",
          "type": "address"
        }
      ],
      "stateMutability": "view",
      "type": "function",
      "constant": true
    },
    {
      "inputs": [],
      "name": "renounceOwnership",
      "outputs": [],
      "stateMutability": "nonpayable",
      "type": "function"
    },
    {
      "inputs": [
        {
          "internalType": "address",
          "name": "from",
          "type": "address"
        },
        {
          "internalType": "address",
          "name": "to",
          "type": "address"
        },
        {
          "internalType": "uint256",
          "name": "tokenId",
          "type": "uint256"
        }
      ],
      "name": "safeTransferFrom",
      "outputs": [],
      "stateMutability": "nonpayable",
      "type": "function"
    },
    {
      "inputs": [
        {
          "internalType": "address",
          "name": "from",
          "type": "address"
        },
        {
          "internalType": "address",
          "name": "to",
          "type": "address"
        },
        {
          "internalType": "uint256",
          "name": "tokenId",
          "type": "uint256"
        },
        {
          "internalType": "bytes",
          "name": "data",
          "type": "bytes"
        }
      ],
      "name": "safeTransferFrom",
      "outputs": [],
      "stateMutability": "nonpayable",
      "type": "function"
    },
    {
      "inputs": [
        {
          "internalType": "address",
          "name": "operator",
          "type": "address"
        },
        {
          "internalType": "bool",
          "name": "approved",
          "type": "bool"
        }
      ],
      "name": "setApprovalForAll",
      "outputs": [],
      "stateMutability": "nonpayable",
      "type": "function"
    },
    {
      "inputs": [
        {
          "internalType": "bytes4",
          "name": "interfaceId",
          "type": "bytes4"
        }
      ],
      "name": "supportsInterface",
      "outputs": [
        {
          "internalType": "bool",
          "name": "",
          "type": "bool"
        }
      ],
      "stateMutability": "view",
      "type": "function",
      "constant": true
    },
    {
      "inputs": [],
      "name": "symbol",
      "outputs": [
        {
          "internalType": "string",
          "name": "",
          "type": "string"
        }
      ],
      "stateMutability": "view",
      "type": "function",
      "constant": true
    },
    {
      "inputs": [
        {
          "internalType": "uint256",
          "name": "tokenId",
          "type": "uint256"
        }
      ],
      "name": "tokenURI",
      "outputs": [
        {
          "internalType": "string",
          "name": "",
          "type": "string"
        }
      ],
      "stateMutability": "view",
      "type": "function",
      "constant": true
    },
    {
      "inputs": [],
      "name": "totalSupply",
      "outputs": [
        {
          "internalType": "uint256",
          "name": "",
          "type": "uint256"
        }
      ],
      "stateMutability": "view",
      "type": "function",
      "constant": true
    },
    {
      "inputs": [
        {
          "internalType": "address",
          "name": "from",
          "type": "address"
        },
        {
          "internalType": "address",
          "name": "to",
          "type": "address"
        },
        {
          "internalType": "uint256",
          "name": "tokenId",
          "type": "uint256"
        }
      ],
      "name": "transferFrom",
      "outputs": [],
      "stateMutability": "nonpayable",
      "type": "function"
    },
    {
      "inputs": [
        {
          "internalType": "address",
          "name": "newOwner",
          "type": "address"
        }
      ],
      "name": "transferOwnership",
      "outputs": [],
      "stateMutability": "nonpayable",
      "type": "function"
    },
    {
      "inputs": [],
      "name": "withdrawWallet",
      "outputs": [
        {
          "internalType": "address payable",
          "name": "",
          "type": "address"
        }
      ],
      "stateMutability": "view",
      "type": "function",
      "constant": true
    },
    {
      "inputs": [
        {
          "internalType": "bool",
          "name": "isMintEnabled_",
          "type": "bool"
        }
      ],
      "name": "toggleIsMintEnabled",
      "outputs": [],
      "stateMutability": "nonpayable",
      "type": "function"
    },
    {
      "inputs": [
        {
          "internalType": "uint256",
          "name": "maxSupply_",
          "type": "uint256"
        }
      ],
      "name": "setMaxSupply",
      "outputs": [],
      "stateMutability": "nonpayable",
      "type": "function"
    },
    {
      "inputs": [
        {
          "internalType": "string",
          "name": "name",
          "type": "string"
        },
        {
          "internalType": "string",
          "name": "description",
          "type": "string"
        },
        {
          "internalType": "string",
          "name": "imageURI",
          "type": "string"
        }
      ],
      "name": "formatTokenURI_svg",
      "outputs": [
        {
          "internalType": "string",
          "name": "",
          "type": "string"
        }
      ],
      "stateMutability": "pure",
      "type": "function",
      "constant": true
    },
    {
      "inputs": [
        {
          "internalType": "string",
          "name": "name",
          "type": "string"
        },
        {
          "internalType": "string",
          "name": "description",
          "type": "string"
        },
        {
          "internalType": "string",
          "name": "imageURI",
          "type": "string"
        }
      ],
      "name": "formatTokenURI_png",
      "outputs": [
        {
          "internalType": "string",
          "name": "",
          "type": "string"
        }
      ],
      "stateMutability": "pure",
      "type": "function",
      "constant": true
    },
    {
      "inputs": [
        {
          "internalType": "bool",
          "name": "marketplaceCheck",
          "type": "bool"
        },
        {
          "internalType": "string",
          "name": "name",
          "type": "string"
        },
        {
          "internalType": "string",
          "name": "description",
          "type": "string"
        },
        {
          "internalType": "string",
          "name": "imageURI",
          "type": "string"
        }
      ],
      "name": "mint",
      "outputs": [],
      "stateMutability": "payable",
      "type": "function",
      "payable": true
    },
    {
      "inputs": [],
      "name": "withdraw",
      "outputs": [],
      "stateMutability": "payable",
      "type": "function",
      "payable": true
    }
  ],
  "bytecode": "0x60806040526001600b60006101000a81548160ff0219169083151502179055506040518060400160405280600f81526020017f4f6e436861696e506978656c61727400000000000000000000000000000000008152506040518060400160405280600381526020017f4f4e5000000000000000000000000000000000000000000000000000000000008152508160009080519060200190620000a3929190620001d2565b508060019080519060200190620000bc929190620001d2565b505050620000df620000d36200010460201b60201c565b6200010c60201b60201c565b66038d7ea4c6800060088190555060006009819055506103e7600a81905550620002e6565b600033905090565b6000600760009054906101000a900473ffffffffffffffffffffffffffffffffffffffff16905081600760006101000a81548173ffffffffffffffffffffffffffffffffffffffff021916908373ffffffffffffffffffffffffffffffffffffffff1602179055508173ffffffffffffffffffffffffffffffffffffffff168173ffffffffffffffffffffffffffffffffffffffff167f8be0079c531659141344cd1fd0a4f28419497f9722a3daafe3b4186f6b6457e060405160405180910390a35050565b828054620001e090620002b1565b90600052602060002090601f01602090048101928262000204576000855562000250565b82601f106200021f57805160ff191683800117855562000250565b8280016001018555821562000250579182015b828111156200024f57825182559160200191906001019062000232565b5b5090506200025f919062000263565b5090565b5b808211156200027e57600081600090555060010162000264565b5090565b7f4e487b7100000000000000000000000000000000000000000000000000000000600052602260045260246000fd5b60006002820490506001821680620002ca57607f821691505b602082108103620002e057620002df62000282565b5b50919050565b613e8580620002f66000396000f3fe6080604052600436106101b75760003560e01c806370a08231116100ec578063b88d4fde1161008a578063d6469f0911610064578063d6469f09146105de578063e1964f3a1461061b578063e985e9c514610658578063f2fde38b14610695576101b7565b8063b88d4fde1461054d578063c87b56dd14610576578063d5abeb01146105b3576101b7565b80638da5cb5b116100c65780638da5cb5b1461049157806395d89b41146104bc578063a22cb465146104e7578063ada7c4ed14610510576101b7565b806370a0823114610412578063715018a61461044f57806385d178f414610466576101b7565b8063346de50a11610159578063529eb6a811610133578063529eb6a8146103585780636352211e146103815780636817c76c146103be5780636f8b44b0146103e9576101b7565b8063346de50a146102fa5780633ccfd60b1461032557806342842e0e1461032f576101b7565b8063081812fc11610195578063081812fc14610240578063095ea7b31461027d57806318160ddd146102a657806323b872dd146102d1576101b7565b806301ffc9a7146101bc5780630227b627146101f957806306fdde0314610215575b600080fd5b3480156101c857600080fd5b506101e360048036038101906101de9190612456565b6106be565b6040516101f0919061249e565b60405180910390f35b610213600480360381019061020e919061262b565b6107a0565b005b34801561022157600080fd5b5061022a6109b3565b604051610237919061276e565b60405180910390f35b34801561024c57600080fd5b50610267600480360381019061026291906127c6565b610a45565b6040516102749190612834565b60405180910390f35b34801561028957600080fd5b506102a4600480360381019061029f919061287b565b610a8b565b005b3480156102b257600080fd5b506102bb610ba2565b6040516102c891906128ca565b60405180910390f35b3480156102dd57600080fd5b506102f860048036038101906102f391906128e5565b610ba8565b005b34801561030657600080fd5b5061030f610c08565b60405161031c919061249e565b60405180910390f35b61032d610c1b565b005b34801561033b57600080fd5b50610356600480360381019061035191906128e5565b610ca3565b005b34801561036457600080fd5b5061037f600480360381019061037a9190612938565b610cc3565b005b34801561038d57600080fd5b506103a860048036038101906103a391906127c6565b610ce8565b6040516103b59190612834565b60405180910390f35b3480156103ca57600080fd5b506103d3610d99565b6040516103e091906128ca565b60405180910390f35b3480156103f557600080fd5b50610410600480360381019061040b91906127c6565b610d9f565b005b34801561041e57600080fd5b5061043960048036038101906104349190612965565b610db1565b60405161044691906128ca565b60405180910390f35b34801561045b57600080fd5b50610464610e68565b005b34801561047257600080fd5b5061047b610e7c565b60405161048891906129b3565b60405180910390f35b34801561049d57600080fd5b506104a6610ea2565b6040516104b39190612834565b60405180910390f35b3480156104c857600080fd5b506104d1610ecc565b6040516104de919061276e565b60405180910390f35b3480156104f357600080fd5b5061050e600480360381019061050991906129ce565b610f5e565b005b34801561051c57600080fd5b5061053760048036038101906105329190612965565b610f74565b60405161054491906128ca565b60405180910390f35b34801561055957600080fd5b50610574600480360381019061056f9190612aaf565b610f8c565b005b34801561058257600080fd5b5061059d600480360381019061059891906127c6565b610fee565b6040516105aa919061276e565b60405180910390f35b3480156105bf57600080fd5b506105c8611100565b6040516105d591906128ca565b60405180910390f35b3480156105ea57600080fd5b5061060560048036038101906106009190612b32565b611106565b604051610612919061276e565b60405180910390f35b34801561062757600080fd5b50610642600480360381019061063d9190612b32565b61115c565b60405161064f919061276e565b60405180910390f35b34801561066457600080fd5b5061067f600480360381019061067a9190612bd9565b6111cd565b60405161068c919061249e565b60405180910390f35b3480156106a157600080fd5b506106bc60048036038101906106b79190612965565b611261565b005b60007f80ac58cd000000000000000000000000000000000000000000000000000000007bffffffffffffffffffffffffffffffffffffffffffffffffffffffff1916827bffffffffffffffffffffffffffffffffffffffffffffffffffffffff1916148061078957507f5b5e139f000000000000000000000000000000000000000000000000000000007bffffffffffffffffffffffffffffffffffffffffffffffffffffffff1916827bffffffffffffffffffffffffffffffffffffffffffffffffffffffff1916145b806107995750610798826112e4565b5b9050919050565b600b60009054906101000a900460ff166107ef576040517f08c379a00000000000000000000000000000000000000000000000000000000081526004016107e690612c65565b60405180910390fd5b600a600c60003373ffffffffffffffffffffffffffffffffffffffff1673ffffffffffffffffffffffffffffffffffffffff1681526020019081526020016000205410610871576040517f08c379a000000000000000000000000000000000000000000000000000000000815260040161086890612cd1565b60405180910390fd5b60085434146108b5576040517f08c379a00000000000000000000000000000000000000000000000000000000081526004016108ac90612d3d565b60405180910390fd5b600954600a54116108fb576040517f08c379a00000000000000000000000000000000000000000000000000000000081526004016108f290612da9565b60405180910390fd5b600c60003373ffffffffffffffffffffffffffffffffffffffff1673ffffffffffffffffffffffffffffffffffffffff168152602001908152602001600020600081548092919061094b90612df8565b91905055506009600081548092919061096390612df8565b9190505550606084156109825761097b848484611106565b9050610990565b61098d84848461115c565b90505b600060095490506109a1338261134e565b6109ab818361136c565b505050505050565b6060600080546109c290612e6f565b80601f01602080910402602001604051908101604052809291908181526020018280546109ee90612e6f565b8015610a3b5780601f10610a1057610100808354040283529160200191610a3b565b820191906000526020600020905b815481529060010190602001808311610a1e57829003601f168201915b5050505050905090565b6000610a50826113e0565b6004600083815260200190815260200160002060009054906101000a900473ffffffffffffffffffffffffffffffffffffffff169050919050565b6000610a9682610ce8565b90508073ffffffffffffffffffffffffffffffffffffffff168373ffffffffffffffffffffffffffffffffffffffff1603610b06576040517f08c379a0000000000000000000000000000000000000000000000000000000008152600401610afd90612f12565b60405180910390fd5b8073ffffffffffffffffffffffffffffffffffffffff16610b2561142b565b73ffffffffffffffffffffffffffffffffffffffff161480610b545750610b5381610b4e61142b565b6111cd565b5b610b93576040517f08c379a0000000000000000000000000000000000000000000000000000000008152600401610b8a90612fa4565b60405180910390fd5b610b9d8383611433565b505050565b60095481565b610bb9610bb361142b565b826114ec565b610bf8576040517f08c379a0000000000000000000000000000000000000000000000000000000008152600401610bef90613036565b60405180910390fd5b610c03838383611581565b505050565b600b60009054906101000a900460ff1681565b610c236117e7565b6000610c2d610ea2565b73ffffffffffffffffffffffffffffffffffffffff1647604051610c5090613087565b60006040518083038185875af1925050503d8060008114610c8d576040519150601f19603f3d011682016040523d82523d6000602084013e610c92565b606091505b5050905080610ca057600080fd5b50565b610cbe83838360405180602001604052806000815250610f8c565b505050565b610ccb6117e7565b80600b60006101000a81548160ff02191690831515021790555050565b6000806002600084815260200190815260200160002060009054906101000a900473ffffffffffffffffffffffffffffffffffffffff169050600073ffffffffffffffffffffffffffffffffffffffff168173ffffffffffffffffffffffffffffffffffffffff1603610d90576040517f08c379a0000000000000000000000000000000000000000000000000000000008152600401610d87906130e8565b60405180910390fd5b80915050919050565b60085481565b610da76117e7565b80600a8190555050565b60008073ffffffffffffffffffffffffffffffffffffffff168273ffffffffffffffffffffffffffffffffffffffff1603610e21576040517f08c379a0000000000000000000000000000000000000000000000000000000008152600401610e189061317a565b60405180910390fd5b600360008373ffffffffffffffffffffffffffffffffffffffff1673ffffffffffffffffffffffffffffffffffffffff168152602001908152602001600020549050919050565b610e706117e7565b610e7a6000611865565b565b600b60019054906101000a900473ffffffffffffffffffffffffffffffffffffffff1681565b6000600760009054906101000a900473ffffffffffffffffffffffffffffffffffffffff16905090565b606060018054610edb90612e6f565b80601f0160208091040260200160405190810160405280929190818152602001828054610f0790612e6f565b8015610f545780601f10610f2957610100808354040283529160200191610f54565b820191906000526020600020905b815481529060010190602001808311610f3757829003601f168201915b5050505050905090565b610f70610f6961142b565b838361192b565b5050565b600c6020528060005260406000206000915090505481565b610f9d610f9761142b565b836114ec565b610fdc576040517f08c379a0000000000000000000000000000000000000000000000000000000008152600401610fd390613036565b60405180910390fd5b610fe884848484611a97565b50505050565b6060610ff9826113e0565b600060066000848152602001908152602001600020805461101990612e6f565b80601f016020809104026020016040519081016040528092919081815260200182805461104590612e6f565b80156110925780601f1061106757610100808354040283529160200191611092565b820191906000526020600020905b81548152906001019060200180831161107557829003601f168201915b5050505050905060006110a3611af3565b905060008151036110b85781925050506110fb565b6000825111156110ed5780826040516020016110d59291906131d6565b604051602081830303815290604052925050506110fb565b6110f684611b0a565b925050505b919050565b600a5481565b6060611134848484604051602001611120939291906134f2565b604051602081830303815290604052611b72565b60405160200161114491906135d2565b60405160208183030381529060405290509392505050565b60606111a5848461116b611cea565b85611174611d0f565b61117c611d51565b604051602001611191969594939291906135f4565b604051602081830303815290604052611b72565b6040516020016111b591906135d2565b60405160208183030381529060405290509392505050565b6000600560008473ffffffffffffffffffffffffffffffffffffffff1673ffffffffffffffffffffffffffffffffffffffff16815260200190815260200160002060008373ffffffffffffffffffffffffffffffffffffffff1673ffffffffffffffffffffffffffffffffffffffff16815260200190815260200160002060009054906101000a900460ff16905092915050565b6112696117e7565b600073ffffffffffffffffffffffffffffffffffffffff168173ffffffffffffffffffffffffffffffffffffffff16036112d8576040517f08c379a00000000000000000000000000000000000000000000000000000000081526004016112cf90613721565b60405180910390fd5b6112e181611865565b50565b60007f01ffc9a7000000000000000000000000000000000000000000000000000000007bffffffffffffffffffffffffffffffffffffffffffffffffffffffff1916827bffffffffffffffffffffffffffffffffffffffffffffffffffffffff1916149050919050565b611368828260405180602001604052806000815250611d93565b5050565b61137582611dee565b6113b4576040517f08c379a00000000000000000000000000000000000000000000000000000000081526004016113ab906137b3565b60405180910390fd5b806006600084815260200190815260200160002090805190602001906113db929190612347565b505050565b6113e981611dee565b611428576040517f08c379a000000000000000000000000000000000000000000000000000000000815260040161141f906130e8565b60405180910390fd5b50565b600033905090565b816004600083815260200190815260200160002060006101000a81548173ffffffffffffffffffffffffffffffffffffffff021916908373ffffffffffffffffffffffffffffffffffffffff160217905550808273ffffffffffffffffffffffffffffffffffffffff166114a683610ce8565b73ffffffffffffffffffffffffffffffffffffffff167f8c5be1e5ebec7d5bd14f71427d1e84f3dd0314c0f7b2291e5b200ac8c7c3b92560405160405180910390a45050565b6000806114f883610ce8565b90508073ffffffffffffffffffffffffffffffffffffffff168473ffffffffffffffffffffffffffffffffffffffff16148061153a575061153981856111cd565b5b8061157857508373ffffffffffffffffffffffffffffffffffffffff1661156084610a45565b73ffffffffffffffffffffffffffffffffffffffff16145b91505092915050565b8273ffffffffffffffffffffffffffffffffffffffff166115a182610ce8565b73ffffffffffffffffffffffffffffffffffffffff16146115f7576040517f08c379a00000000000000000000000000000000000000000000000000000000081526004016115ee90613845565b60405180910390fd5b600073ffffffffffffffffffffffffffffffffffffffff168273ffffffffffffffffffffffffffffffffffffffff1603611666576040517f08c379a000000000000000000000000000000000000000000000000000000000815260040161165d906138d7565b60405180910390fd5b611671838383611e5a565b61167c600082611433565b6001600360008573ffffffffffffffffffffffffffffffffffffffff1673ffffffffffffffffffffffffffffffffffffffff16815260200190815260200160002060008282546116cc91906138f7565b925050819055506001600360008473ffffffffffffffffffffffffffffffffffffffff1673ffffffffffffffffffffffffffffffffffffffff1681526020019081526020016000206000828254611723919061392b565b92505081905550816002600083815260200190815260200160002060006101000a81548173ffffffffffffffffffffffffffffffffffffffff021916908373ffffffffffffffffffffffffffffffffffffffff160217905550808273ffffffffffffffffffffffffffffffffffffffff168473ffffffffffffffffffffffffffffffffffffffff167fddf252ad1be2c89b69c2b068fc378daa952ba7f163c4a11628f55a4df523b3ef60405160405180910390a46117e2838383611e5f565b505050565b6117ef61142b565b73ffffffffffffffffffffffffffffffffffffffff1661180d610ea2565b73ffffffffffffffffffffffffffffffffffffffff1614611863576040517f08c379a000000000000000000000000000000000000000000000000000000000815260040161185a906139cd565b60405180910390fd5b565b6000600760009054906101000a900473ffffffffffffffffffffffffffffffffffffffff16905081600760006101000a81548173ffffffffffffffffffffffffffffffffffffffff021916908373ffffffffffffffffffffffffffffffffffffffff1602179055508173ffffffffffffffffffffffffffffffffffffffff168173ffffffffffffffffffffffffffffffffffffffff167f8be0079c531659141344cd1fd0a4f28419497f9722a3daafe3b4186f6b6457e060405160405180910390a35050565b8173ffffffffffffffffffffffffffffffffffffffff168373ffffffffffffffffffffffffffffffffffffffff1603611999576040517f08c379a000000000000000000000000000000000000000000000000000000000815260040161199090613a39565b60405180910390fd5b80600560008573ffffffffffffffffffffffffffffffffffffffff1673ffffffffffffffffffffffffffffffffffffffff16815260200190815260200160002060008473ffffffffffffffffffffffffffffffffffffffff1673ffffffffffffffffffffffffffffffffffffffff16815260200190815260200160002060006101000a81548160ff0219169083151502179055508173ffffffffffffffffffffffffffffffffffffffff168373ffffffffffffffffffffffffffffffffffffffff167f17307eab39ab6107e8899845ad3d59bd9653f200f220920489ca2b5937696c3183604051611a8a919061249e565b60405180910390a3505050565b611aa2848484611581565b611aae84848484611e64565b611aed576040517f08c379a0000000000000000000000000000000000000000000000000000000008152600401611ae490613acb565b60405180910390fd5b50505050565b606060405180602001604052806000815250905090565b6060611b15826113e0565b6000611b1f611af3565b90506000815111611b3f5760405180602001604052806000815250611b6a565b80611b4984611feb565b604051602001611b5a9291906131d6565b6040516020818303038152906040525b915050919050565b60606000825103611b9457604051806020016040528060008152509050611ce5565b6000604051806060016040528060408152602001613dc16040913990506000600360028551611bc3919061392b565b611bcd9190613b1a565b6004611bd99190613b4b565b90506000602082611bea919061392b565b67ffffffffffffffff811115611c0357611c02612500565b5b6040519080825280601f01601f191660200182016040528015611c355781602001600182028036833780820191505090505b509050818152600183018586518101602084015b81831015611ca4576003830192508251603f8160121c168501518253600182019150603f81600c1c168501518253600182019150603f8160061c168501518253600182019150603f8116850151825360018201915050611c49565b600389510660018114611cbe5760028114611cce57611cd9565b613d3d60f01b6002830352611cd9565b603d60f81b60018303525b50505050508093505050505b919050565b6060806040518060800160405280604f8152602001613e01604f913990508091505090565b6060806040518060400160405280601181526020017f273e3c2f696d6167653e203c2f7376673e00000000000000000000000000000081525090508091505090565b6060806040518060400160405280600281526020017f227d00000000000000000000000000000000000000000000000000000000000081525090508091505090565b611d9d838361214b565b611daa6000848484611e64565b611de9576040517f08c379a0000000000000000000000000000000000000000000000000000000008152600401611de090613acb565b60405180910390fd5b505050565b60008073ffffffffffffffffffffffffffffffffffffffff166002600084815260200190815260200160002060009054906101000a900473ffffffffffffffffffffffffffffffffffffffff1673ffffffffffffffffffffffffffffffffffffffff1614159050919050565b505050565b505050565b6000611e858473ffffffffffffffffffffffffffffffffffffffff16612324565b15611fde578373ffffffffffffffffffffffffffffffffffffffff1663150b7a02611eae61142b565b8786866040518563ffffffff1660e01b8152600401611ed09493929190613bfa565b6020604051808303816000875af1925050508015611f0c57506040513d601f19601f82011682018060405250810190611f099190613c5b565b60015b611f8e573d8060008114611f3c576040519150601f19603f3d011682016040523d82523d6000602084013e611f41565b606091505b506000815103611f86576040517f08c379a0000000000000000000000000000000000000000000000000000000008152600401611f7d90613acb565b60405180910390fd5b805181602001fd5b63150b7a0260e01b7bffffffffffffffffffffffffffffffffffffffffffffffffffffffff1916817bffffffffffffffffffffffffffffffffffffffffffffffffffffffff191614915050611fe3565b600190505b949350505050565b606060008203612032576040518060400160405280600181526020017f30000000000000000000000000000000000000000000000000000000000000008152509050612146565b600082905060005b6000821461206457808061204d90612df8565b915050600a8261205d9190613b1a565b915061203a565b60008167ffffffffffffffff8111156120805761207f612500565b5b6040519080825280601f01601f1916602001820160405280156120b25781602001600182028036833780820191505090505b5090505b6000851461213f576001826120cb91906138f7565b9150600a856120da9190613c88565b60306120e6919061392b565b60f81b8183815181106120fc576120fb613cb9565b5b60200101907effffffffffffffffffffffffffffffffffffffffffffffffffffffffffffff1916908160001a905350600a856121389190613b1a565b94506120b6565b8093505050505b919050565b600073ffffffffffffffffffffffffffffffffffffffff168273ffffffffffffffffffffffffffffffffffffffff16036121ba576040517f08c379a00000000000000000000000000000000000000000000000000000000081526004016121b190613d34565b60405180910390fd5b6121c381611dee565b15612203576040517f08c379a00000000000000000000000000000000000000000000000000000000081526004016121fa90613da0565b60405180910390fd5b61220f60008383611e5a565b6001600360008473ffffffffffffffffffffffffffffffffffffffff1673ffffffffffffffffffffffffffffffffffffffff168152602001908152602001600020600082825461225f919061392b565b92505081905550816002600083815260200190815260200160002060006101000a81548173ffffffffffffffffffffffffffffffffffffffff021916908373ffffffffffffffffffffffffffffffffffffffff160217905550808273ffffffffffffffffffffffffffffffffffffffff16600073ffffffffffffffffffffffffffffffffffffffff167fddf252ad1be2c89b69c2b068fc378daa952ba7f163c4a11628f55a4df523b3ef60405160405180910390a461232060008383611e5f565b5050565b6000808273ffffffffffffffffffffffffffffffffffffffff163b119050919050565b82805461235390612e6f565b90600052602060002090601f01602090048101928261237557600085556123bc565b82601f1061238e57805160ff19168380011785556123bc565b828001600101855582156123bc579182015b828111156123bb5782518255916020019190600101906123a0565b5b5090506123c991906123cd565b5090565b5b808211156123e65760008160009055506001016123ce565b5090565b6000604051905090565b600080fd5b600080fd5b60007fffffffff0000000000000000000000000000000000000000000000000000000082169050919050565b612433816123fe565b811461243e57600080fd5b50565b6000813590506124508161242a565b92915050565b60006020828403121561246c5761246b6123f4565b5b600061247a84828501612441565b91505092915050565b60008115159050919050565b61249881612483565b82525050565b60006020820190506124b3600083018461248f565b92915050565b6124c281612483565b81146124cd57600080fd5b50565b6000813590506124df816124b9565b92915050565b600080fd5b600080fd5b6000601f19601f8301169050919050565b7f4e487b7100000000000000000000000000000000000000000000000000000000600052604160045260246000fd5b612538826124ef565b810181811067ffffffffffffffff8211171561255757612556612500565b5b80604052505050565b600061256a6123ea565b9050612576828261252f565b919050565b600067ffffffffffffffff82111561259657612595612500565b5b61259f826124ef565b9050602081019050919050565b82818337600083830152505050565b60006125ce6125c98461257b565b612560565b9050828152602081018484840111156125ea576125e96124ea565b5b6125f58482856125ac565b509392505050565b600082601f830112612612576126116124e5565b5b81356126228482602086016125bb565b91505092915050565b60008060008060808587031215612645576126446123f4565b5b6000612653878288016124d0565b945050602085013567ffffffffffffffff811115612674576126736123f9565b5b612680878288016125fd565b935050604085013567ffffffffffffffff8111156126a1576126a06123f9565b5b6126ad878288016125fd565b925050606085013567ffffffffffffffff8111156126ce576126cd6123f9565b5b6126da878288016125fd565b91505092959194509250565b600081519050919050565b600082825260208201905092915050565b60005b83811015612720578082015181840152602081019050612705565b8381111561272f576000848401525b50505050565b6000612740826126e6565b61274a81856126f1565b935061275a818560208601612702565b612763816124ef565b840191505092915050565b600060208201905081810360008301526127888184612735565b905092915050565b6000819050919050565b6127a381612790565b81146127ae57600080fd5b50565b6000813590506127c08161279a565b92915050565b6000602082840312156127dc576127db6123f4565b5b60006127ea848285016127b1565b91505092915050565b600073ffffffffffffffffffffffffffffffffffffffff82169050919050565b600061281e826127f3565b9050919050565b61282e81612813565b82525050565b60006020820190506128496000830184612825565b92915050565b61285881612813565b811461286357600080fd5b50565b6000813590506128758161284f565b92915050565b60008060408385031215612892576128916123f4565b5b60006128a085828601612866565b92505060206128b1858286016127b1565b9150509250929050565b6128c481612790565b82525050565b60006020820190506128df60008301846128bb565b92915050565b6000806000606084860312156128fe576128fd6123f4565b5b600061290c86828701612866565b935050602061291d86828701612866565b925050604061292e868287016127b1565b9150509250925092565b60006020828403121561294e5761294d6123f4565b5b600061295c848285016124d0565b91505092915050565b60006020828403121561297b5761297a6123f4565b5b600061298984828501612866565b91505092915050565b600061299d826127f3565b9050919050565b6129ad81612992565b82525050565b60006020820190506129c860008301846129a4565b92915050565b600080604083850312156129e5576129e46123f4565b5b60006129f385828601612866565b9250506020612a04858286016124d0565b9150509250929050565b600067ffffffffffffffff821115612a2957612a28612500565b5b612a32826124ef565b9050602081019050919050565b6000612a52612a4d84612a0e565b612560565b905082815260208101848484011115612a6e57612a6d6124ea565b5b612a798482856125ac565b509392505050565b600082601f830112612a9657612a956124e5565b5b8135612aa6848260208601612a3f565b91505092915050565b60008060008060808587031215612ac957612ac86123f4565b5b6000612ad787828801612866565b9450506020612ae887828801612866565b9350506040612af9878288016127b1565b925050606085013567ffffffffffffffff811115612b1a57612b196123f9565b5b612b2687828801612a81565b91505092959194509250565b600080600060608486031215612b4b57612b4a6123f4565b5b600084013567ffffffffffffffff811115612b6957612b686123f9565b5b612b75868287016125fd565b935050602084013567ffffffffffffffff811115612b9657612b956123f9565b5b612ba2868287016125fd565b925050604084013567ffffffffffffffff811115612bc357612bc26123f9565b5b612bcf868287016125fd565b9150509250925092565b60008060408385031215612bf057612bef6123f4565b5b6000612bfe85828601612866565b9250506020612c0f85828601612866565b9150509250929050565b7f6f776e65722064697361626c6564206d696e74696e6721000000000000000000600082015250565b6000612c4f6017836126f1565b9150612c5a82612c19565b602082019050919050565b60006020820190508181036000830152612c7e81612c42565b9050919050565b7f65786365656473206d6178207065722077616c6c657400000000000000000000600082015250565b6000612cbb6016836126f1565b9150612cc682612c85565b602082019050919050565b60006020820190508181036000830152612cea81612cae565b9050919050565b7f77726f6e672076616c756520666f72206d696e74696e67207072696365000000600082015250565b6000612d27601d836126f1565b9150612d3282612cf1565b602082019050919050565b60006020820190508181036000830152612d5681612d1a565b9050919050565b7f636f6c6c656374696f6e20736f6c64206f757400000000000000000000000000600082015250565b6000612d936013836126f1565b9150612d9e82612d5d565b602082019050919050565b60006020820190508181036000830152612dc281612d86565b9050919050565b7f4e487b7100000000000000000000000000000000000000000000000000000000600052601160045260246000fd5b6000612e0382612790565b91507fffffffffffffffffffffffffffffffffffffffffffffffffffffffffffffffff8203612e3557612e34612dc9565b5b600182019050919050565b7f4e487b7100000000000000000000000000000000000000000000000000000000600052602260045260246000fd5b60006002820490506001821680612e8757607f821691505b602082108103612e9a57612e99612e40565b5b50919050565b7f4552433732313a20617070726f76616c20746f2063757272656e74206f776e6560008201527f7200000000000000000000000000000000000000000000000000000000000000602082015250565b6000612efc6021836126f1565b9150612f0782612ea0565b604082019050919050565b60006020820190508181036000830152612f2b81612eef565b9050919050565b7f4552433732313a20617070726f76652063616c6c6572206973206e6f7420746f60008201527f6b656e206f776e6572206e6f7220617070726f76656420666f7220616c6c0000602082015250565b6000612f8e603e836126f1565b9150612f9982612f32565b604082019050919050565b60006020820190508181036000830152612fbd81612f81565b9050919050565b7f4552433732313a2063616c6c6572206973206e6f7420746f6b656e206f776e6560008201527f72206e6f7220617070726f766564000000000000000000000000000000000000602082015250565b6000613020602e836126f1565b915061302b82612fc4565b604082019050919050565b6000602082019050818103600083015261304f81613013565b9050919050565b600081905092915050565b50565b6000613071600083613056565b915061307c82613061565b600082019050919050565b600061309282613064565b9150819050919050565b7f4552433732313a20696e76616c696420746f6b656e2049440000000000000000600082015250565b60006130d26018836126f1565b91506130dd8261309c565b602082019050919050565b60006020820190508181036000830152613101816130c5565b9050919050565b7f4552433732313a2061646472657373207a65726f206973206e6f74206120766160008201527f6c6964206f776e65720000000000000000000000000000000000000000000000602082015250565b60006131646029836126f1565b915061316f82613108565b604082019050919050565b6000602082019050818103600083015261319381613157565b9050919050565b600081905092915050565b60006131b0826126e6565b6131ba818561319a565b93506131ca818560208601612702565b80840191505092915050565b60006131e282856131a5565b91506131ee82846131a5565b91508190509392505050565b7f7b226e616d65223a202200000000000000000000000000000000000000000000600082015250565b6000613230600a8361319a565b915061323b826131fa565b600a82019050919050565b7f222c000000000000000000000000000000000000000000000000000000000000600082015250565b600061327c60028361319a565b915061328782613246565b600282019050919050565b7f22696d6167655f64617461223a20220000000000000000000000000000000000600082015250565b60006132c8600f8361319a565b91506132d382613292565b600f82019050919050565b7f2261747472696275746573223a205b7b2274726169745f74797065223a20225360008201527f70656564222c202276616c7565223a20317d2c00000000000000000000000000602082015250565b600061333a60338361319a565b9150613345826132de565b603382019050919050565b7f7b2274726169745f74797065223a202241747461636b222c202276616c75652260008201527f3a20327d2c000000000000000000000000000000000000000000000000000000602082015250565b60006133ac60258361319a565b91506133b782613350565b602582019050919050565b7f7b2274726169745f74797065223a2022446566656e6365222c202276616c756560008201527f223a20337d2c0000000000000000000000000000000000000000000000000000602082015250565b600061341e60268361319a565b9150613429826133c2565b602682019050919050565b7f7b2274726169745f74797065223a20224d6174657269616c222c202276616c7560008201527f65223a202234227d000000000000000000000000000000000000000000000000602082015250565b600061349060288361319a565b915061349b82613434565b602882019050919050565b7f5d7d000000000000000000000000000000000000000000000000000000000000600082015250565b60006134dc60028361319a565b91506134e7826134a6565b600282019050919050565b60006134fd82613223565b915061350982866131a5565b915061351582856131a5565b91506135208261326f565b915061352b826132bb565b915061353782846131a5565b91506135428261326f565b915061354d8261332d565b91506135588261339f565b915061356382613411565b915061356e82613483565b9150613579826134cf565b9150819050949350505050565b7f646174613a6170706c69636174696f6e2f6a736f6e3b6261736536342c000000600082015250565b60006135bc601d8361319a565b91506135c782613586565b601d82019050919050565b60006135dd826135af565b91506135e982846131a5565b915081905092915050565b60006135ff82613223565b915061360b82896131a5565b915061361782886131a5565b91506136228261326f565b915061362d826132bb565b915061363982876131a5565b915061364582866131a5565b915061365182856131a5565b915061365d82846131a5565b91506136688261326f565b91506136738261332d565b915061367e8261339f565b915061368982613411565b915061369482613483565b915061369f826134cf565b9150819050979650505050505050565b7f4f776e61626c653a206e6577206f776e657220697320746865207a65726f206160008201527f6464726573730000000000000000000000000000000000000000000000000000602082015250565b600061370b6026836126f1565b9150613716826136af565b604082019050919050565b6000602082019050818103600083015261373a816136fe565b9050919050565b7f45524337323155524953746f726167653a2055524920736574206f66206e6f6e60008201527f6578697374656e7420746f6b656e000000000000000000000000000000000000602082015250565b600061379d602e836126f1565b91506137a882613741565b604082019050919050565b600060208201905081810360008301526137cc81613790565b9050919050565b7f4552433732313a207472616e736665722066726f6d20696e636f72726563742060008201527f6f776e6572000000000000000000000000000000000000000000000000000000602082015250565b600061382f6025836126f1565b915061383a826137d3565b604082019050919050565b6000602082019050818103600083015261385e81613822565b9050919050565b7f4552433732313a207472616e7366657220746f20746865207a65726f2061646460008201527f7265737300000000000000000000000000000000000000000000000000000000602082015250565b60006138c16024836126f1565b91506138cc82613865565b604082019050919050565b600060208201905081810360008301526138f0816138b4565b9050919050565b600061390282612790565b915061390d83612790565b9250828210156139205761391f612dc9565b5b828203905092915050565b600061393682612790565b915061394183612790565b9250827fffffffffffffffffffffffffffffffffffffffffffffffffffffffffffffffff0382111561397657613975612dc9565b5b828201905092915050565b7f4f776e61626c653a2063616c6c6572206973206e6f7420746865206f776e6572600082015250565b60006139b76020836126f1565b91506139c282613981565b602082019050919050565b600060208201905081810360008301526139e6816139aa565b9050919050565b7f4552433732313a20617070726f766520746f2063616c6c657200000000000000600082015250565b6000613a236019836126f1565b9150613a2e826139ed565b602082019050919050565b60006020820190508181036000830152613a5281613a16565b9050919050565b7f4552433732313a207472616e7366657220746f206e6f6e20455243373231526560008201527f63656976657220696d706c656d656e7465720000000000000000000000000000602082015250565b6000613ab56032836126f1565b9150613ac082613a59565b604082019050919050565b60006020820190508181036000830152613ae481613aa8565b9050919050565b7f4e487b7100000000000000000000000000000000000000000000000000000000600052601260045260246000fd5b6000613b2582612790565b9150613b3083612790565b925082613b4057613b3f613aeb565b5b828204905092915050565b6000613b5682612790565b9150613b6183612790565b9250817fffffffffffffffffffffffffffffffffffffffffffffffffffffffffffffffff0483118215151615613b9a57613b99612dc9565b5b828202905092915050565b600081519050919050565b600082825260208201905092915050565b6000613bcc82613ba5565b613bd68185613bb0565b9350613be6818560208601612702565b613bef816124ef565b840191505092915050565b6000608082019050613c0f6000830187612825565b613c1c6020830186612825565b613c2960408301856128bb565b8181036060830152613c3b8184613bc1565b905095945050505050565b600081519050613c558161242a565b92915050565b600060208284031215613c7157613c706123f4565b5b6000613c7f84828501613c46565b91505092915050565b6000613c9382612790565b9150613c9e83612790565b925082613cae57613cad613aeb565b5b828206905092915050565b7f4e487b7100000000000000000000000000000000000000000000000000000000600052603260045260246000fd5b7f4552433732313a206d696e7420746f20746865207a65726f2061646472657373600082015250565b6000613d1e6020836126f1565b9150613d2982613ce8565b602082019050919050565b60006020820190508181036000830152613d4d81613d11565b9050919050565b7f4552433732313a20746f6b656e20616c7265616479206d696e74656400000000600082015250565b6000613d8a601c836126f1565b9150613d9582613d54565b602082019050919050565b60006020820190508181036000830152613db981613d7d565b905091905056fe4142434445464748494a4b4c4d4e4f505152535455565758595a6162636465666768696a6b6c6d6e6f707172737475767778797a303132333435363738392b2f3c7376672077696474683d2732303027206865696768743d273230302720786d6c6e733d27687474703a2f2f7777772e77332e6f72672f323030302f737667273e203c696d61676520687265663d27a2646970667358221220ebb89818c666d323e6b732d607c5ad0254dc7aa9a6cbcb9878719bc092be5ef564736f6c634300080e0033",
  "immutableReferences": {},
  "source": "// SPDX-License-Identifier: MIT\npragma solidity >=0.4.22 <0.9.0;\n\n//import \"@openzeppelin/contracts/token/ERC721/extensions/ERC721URIStorage.sol\"\n\nimport \"../node_modules/@openzeppelin/contracts/token/ERC721/extensions/ERC721URIStorage.sol\";\nimport \"../node_modules/@openzeppelin/contracts/access/Ownable.sol\";\nimport \"../node_modules/@openzeppelin/contracts/utils/Counters.sol\";\n\nlibrary Base64 {\n    string internal constant TABLE_ENCODE = 'ABCDEFGHIJKLMNOPQRSTUVWXYZabcdefghijklmnopqrstuvwxyz0123456789+/';\n    bytes  internal constant TABLE_DECODE = hex\"0000000000000000000000000000000000000000000000000000000000000000\"\n                                            hex\"00000000000000000000003e0000003f3435363738393a3b3c3d000000000000\"\n                                            hex\"00000102030405060708090a0b0c0d0e0f101112131415161718190000000000\"\n                                            hex\"001a1b1c1d1e1f202122232425262728292a2b2c2d2e2f303132330000000000\";\n\n    function encode(bytes memory data) internal pure returns (string memory) {\n        if (data.length == 0) return '';\n\n        // load the table into memory\n        string memory table = TABLE_ENCODE;\n\n        // multiply by 4/3 rounded up\n        uint256 encodedLen = 4 * ((data.length + 2) / 3);\n\n        // add some extra buffer at the end required for the writing\n        string memory result = new string(encodedLen + 32);\n\n        assembly {\n            // set the actual output length\n            mstore(result, encodedLen)\n\n            // prepare the lookup table\n            let tablePtr := add(table, 1)\n\n            // input ptr\n            let dataPtr := data\n            let endPtr := add(dataPtr, mload(data))\n\n            // result ptr, jump over length\n            let resultPtr := add(result, 32)\n\n            // run over the input, 3 bytes at a time\n            for {} lt(dataPtr, endPtr) {}\n            {\n                // read 3 bytes\n                dataPtr := add(dataPtr, 3)\n                let input := mload(dataPtr)\n\n                // write 4 characters\n                mstore8(resultPtr, mload(add(tablePtr, and(shr(18, input), 0x3F))))\n                resultPtr := add(resultPtr, 1)\n                mstore8(resultPtr, mload(add(tablePtr, and(shr(12, input), 0x3F))))\n                resultPtr := add(resultPtr, 1)\n                mstore8(resultPtr, mload(add(tablePtr, and(shr( 6, input), 0x3F))))\n                resultPtr := add(resultPtr, 1)\n                mstore8(resultPtr, mload(add(tablePtr, and(        input,  0x3F))))\n                resultPtr := add(resultPtr, 1)\n            }\n\n            // padding with '='\n            switch mod(mload(data), 3)\n            case 1 { mstore(sub(resultPtr, 2), shl(240, 0x3d3d)) }\n            case 2 { mstore(sub(resultPtr, 1), shl(248, 0x3d)) }\n        }\n\n        return result;\n    }\n\n    function decode(string memory _data) internal pure returns (bytes memory) {\n        bytes memory data = bytes(_data);\n\n        if (data.length == 0) return new bytes(0);\n        require(data.length % 4 == 0, \"invalid base64 decoder input\");\n\n        // load the table into memory\n        bytes memory table = TABLE_DECODE;\n\n        // every 4 characters represent 3 bytes\n        uint256 decodedLen = (data.length / 4) * 3;\n\n        // add some extra buffer at the end required for the writing\n        bytes memory result = new bytes(decodedLen + 32);\n\n        assembly {\n            // padding with '='\n            let lastBytes := mload(add(data, mload(data)))\n            if eq(and(lastBytes, 0xFF), 0x3d) {\n                decodedLen := sub(decodedLen, 1)\n                if eq(and(lastBytes, 0xFFFF), 0x3d3d) {\n                    decodedLen := sub(decodedLen, 1)\n                }\n            }\n\n            // set the actual output length\n            mstore(result, decodedLen)\n\n            // prepare the lookup table\n            let tablePtr := add(table, 1)\n\n            // input ptr\n            let dataPtr := data\n            let endPtr := add(dataPtr, mload(data))\n\n            // result ptr, jump over length\n            let resultPtr := add(result, 32)\n\n            // run over the input, 4 characters at a time\n            for {} lt(dataPtr, endPtr) {}\n            {\n               // read 4 characters\n               dataPtr := add(dataPtr, 4)\n               let input := mload(dataPtr)\n\n               // write 3 bytes\n               let output := add(\n                   add(\n                       shl(18, and(mload(add(tablePtr, and(shr(24, input), 0xFF))), 0xFF)),\n                       shl(12, and(mload(add(tablePtr, and(shr(16, input), 0xFF))), 0xFF))),\n                   add(\n                       shl( 6, and(mload(add(tablePtr, and(shr( 8, input), 0xFF))), 0xFF)),\n                               and(mload(add(tablePtr, and(        input , 0xFF))), 0xFF)\n                    )\n                )\n                mstore(resultPtr, shl(232, output))\n                resultPtr := add(resultPtr, 3)\n            }\n        }\n\n        return result;\n    }\n}\n\ncontract OnChainNFT is ERC721URIStorage, Ownable {\n\n    uint256 public mintPrice;\n    uint256 public totalSupply;\n    uint256 public maxSupply;\n    bool public isMintEnabled=true;\n\n    address payable public withdrawWallet;\n    mapping(address => uint256) public mintedWallets;\n\n    constructor() payable ERC721(\"OnChainPixelart\", \"ONP\") {\n        mintPrice = 0.001 ether;\n        totalSupply = 0;\n        maxSupply = 999;\n    }\n\n    function toggleIsMintEnabled(bool isMintEnabled_) external onlyOwner {\n        isMintEnabled = isMintEnabled_;\n    }\n\n    function setMaxSupply(uint256 maxSupply_) external onlyOwner {\n        maxSupply = maxSupply_;\n    }\n\n        function getSvg1() private pure returns (string memory) {\n        string memory svg1;\n        svg1 = \"<svg width='200' height='200' xmlns='http://www.w3.org/2000/svg'> <image href='\";\n        return svg1;\n    }    \n\n        function getSvg2() private pure returns (string memory) {\n        string memory svg2;\n        svg2 = \"'></image> </svg>\";\n        return svg2;\n    } \n\n    function addCurlyBrace() private pure returns (string memory){\n        string memory curlyBrace;\n        curlyBrace = '\"}';\n        return curlyBrace;\n    }\n\n\n// '{\"name\": \"LCM ON-CHAINED\", \"description\": \"A simple PNG based on-chain NFT\", \"image_data\":\"',\n\n\n    /* Generates a tokenURI using Base64 string as the image */\n/*     function formatTokenURIforOpenSea(string memory imageURI)\n        public\n        pure\n        returns (string memory)\n    {\n        \n        return\n            string(\n                abi.encodePacked(\"data:application/json;base64,\",\n                            Base64.encode(\n                      bytes(string(\n                        abi.encodePacked(\n                            '{\"name\": \"LCM ON-CHAINED\", \"description\": \"A simple PNG based on-chain NFT\", \"image_data\":\"',\n                            getSvg1(),\n                            imageURI,\n                            getSvg2(),\n                            addCurlyBrace()\n                          \n                        ))\n                    )\n                       )\n                )\n            );\n    } */\n\n      function formatTokenURI_svg(string memory name, string memory description,string memory imageURI)\n        public\n        pure\n        returns (string memory)\n    {\n        \n        return\n            string(\n                abi.encodePacked(\"data:application/json;base64,\",\n                            Base64.encode(\n                      bytes(string(\n                        abi.encodePacked(\n\n                    '{\"name\": \"',name,description,'\",',\n                    '\"image_data\": \"',   getSvg1(),\n                            imageURI,\n                            getSvg2(),\n                            addCurlyBrace(), '\",',\n                    '\"attributes\": [{\"trait_type\": \"Speed\", \"value\": 1},',\n                    '{\"trait_type\": \"Attack\", \"value\": 2},',\n                    '{\"trait_type\": \"Defence\", \"value\": 3},',\n                    '{\"trait_type\": \"Material\", \"value\": \"4\"}',\n                    ']}'\n\n                        ))\n                    )\n                       )\n                )\n            );\n    }\n\n        function formatTokenURI_png(string memory name, string memory description,string memory imageURI)\n        public\n        pure\n        returns (string memory)\n    {\n        \n        return\n            string(\n                abi.encodePacked(\"data:application/json;base64,\",\n                            Base64.encode(\n                      bytes(string(\n                        abi.encodePacked(\n\n                    '{\"name\": \"',name,description,'\",',\n                    '\"image_data\": \"',imageURI,'\",',\n                    '\"attributes\": [{\"trait_type\": \"Speed\", \"value\": 1},',\n                    '{\"trait_type\": \"Attack\", \"value\": 2},',\n                    '{\"trait_type\": \"Defence\", \"value\": 3},',\n                    '{\"trait_type\": \"Material\", \"value\": \"4\"}',\n                    ']}'\n\n                        ))\n                    )\n                       )\n                )\n            );\n    }\n        function mint(bool marketplaceCheck, string memory name, string memory description,string memory imageURI) external payable {\n\n            require(isMintEnabled, \"owner disabled minting!\");\n            require(mintedWallets[msg.sender]<10, 'exceeds max per wallet');\n            require(msg.value == mintPrice,'wrong value for minting price');\n            require(maxSupply> totalSupply,'collection sold out');\n\n            mintedWallets[msg.sender]++;\n            totalSupply++;\n\n\n            string memory tokenURI;\n\n            if(marketplaceCheck){\n            tokenURI = formatTokenURI_png(name, description, imageURI); \n    \n            }  else {\n            tokenURI = formatTokenURI_svg(name, description, imageURI);\n            }\n\n            uint256 tokenId=totalSupply;\n            \n            _safeMint(msg.sender, tokenId);\n            _setTokenURI(tokenId, tokenURI);\n        }\n\n  function withdraw() public payable onlyOwner {\n    (bool os, ) = payable(owner()).call{value: address(this).balance}(\"\");\n    require(os);\n  }\n  \n//   contract MyCollectible is ERC721 {\n//     function contractURI() public view returns (string memory) {\n//         return \"https://metadata-url.com/my-metadata\";\n//     }\n//}\n   \n}\n",
  "sourcePath": "/home/brate/Desktop/web3_pixelart_full/react_web3_pixelart_creator/truffle/contracts/OnChainNFT.sol",
  "compiler": {
    "name": "solc",
    "version": "0.8.14+commit.80d49f37.Emscripten.clang"
  },
  "schemaVersion": "3.4.10",
  "updatedAt": "2022-10-11T23:20:52.263Z",
  "networkType": "ethereum",
  "devdoc": {
    "kind": "dev",
    "methods": {
      "approve(address,uint256)": {
        "details": "See {IERC721-approve}."
      },
      "balanceOf(address)": {
        "details": "See {IERC721-balanceOf}."
      },
      "getApproved(uint256)": {
        "details": "See {IERC721-getApproved}."
      },
      "isApprovedForAll(address,address)": {
        "details": "See {IERC721-isApprovedForAll}."
      },
      "name()": {
        "details": "See {IERC721Metadata-name}."
      },
      "owner()": {
        "details": "Returns the address of the current owner."
      },
      "ownerOf(uint256)": {
        "details": "See {IERC721-ownerOf}."
      },
      "renounceOwnership()": {
        "details": "Leaves the contract without owner. It will not be possible to call `onlyOwner` functions anymore. Can only be called by the current owner. NOTE: Renouncing ownership will leave the contract without an owner, thereby removing any functionality that is only available to the owner."
      },
      "safeTransferFrom(address,address,uint256)": {
        "details": "See {IERC721-safeTransferFrom}."
      },
      "safeTransferFrom(address,address,uint256,bytes)": {
        "details": "See {IERC721-safeTransferFrom}."
      },
      "setApprovalForAll(address,bool)": {
        "details": "See {IERC721-setApprovalForAll}."
      },
      "supportsInterface(bytes4)": {
        "details": "See {IERC165-supportsInterface}."
      },
      "symbol()": {
        "details": "See {IERC721Metadata-symbol}."
      },
      "tokenURI(uint256)": {
        "details": "See {IERC721Metadata-tokenURI}."
      },
      "transferFrom(address,address,uint256)": {
        "details": "See {IERC721-transferFrom}."
      },
      "transferOwnership(address)": {
        "details": "Transfers ownership of the contract to a new account (`newOwner`). Can only be called by the current owner."
      }
    },
    "version": 1
  },
  "userdoc": {
    "kind": "user",
    "methods": {},
    "version": 1
  }
}